:020000040808EA
:100000000000080838140808000005000A0005016F
:080010000402EA0300000000F5
:100018000C11080809480A4908B5884205D0094A58
:10002800824202D0121A01F029F80748074A002133
:10003800121A01F02EF8064808BD00BF000400207F
:10004800A41308086C0400206C040020840C002011
:10005800840C002070B500F0D5FD074B074C1E46F8
:10006800E41AA4080025A54204D056F8253098477C
:100078000135F8E770BD00BF60130808941308083D
:1000880000F08CB808B500F0ADF8BDE8084000F005
:100098007BBD00F055BA0078B0FA80F0400970478F
:1000A800012303707047704710B50446FFF7F1FF4E
:1000B800204610BD10B50C4C2368DB0711D4204630
:1000C800FFF7E9FF68B1094A0321094B094800F025
:1000D80019FC2046FFF7E4FF074A0849054800F0E5
:1000E80071FE044810BD00BFF80400207004002011
:1000F800AC050020840500206C040020AF0008082F
:1001080010B5FFF7D7FF074B044653B100F01AFCB0
:1001180038B1236820461B699847002801DDAFF3F2
:10012800008010BD0000000010B50C4C2368DB07F0
:1001380011D42046FFF7AFFF68B1094A0421094BE3
:10014800094800F0DFFB2046FFF7AAFF074A0849E5
:10015800054800F037FE044810BD00BFF404002035
:100168000005002030060020980500206C040020BF
:10017800AF00080810B5FFF7D7FF074B044653B187
:1001880000F0E0FB38B1236820461B699847002837
:1001980001DDAFF3008010BD0000000008B500F0DD
:1001A80053FC4FF4165100F035FCFFF783FF4FF472
:1001B800165100F0C1FBFFF7B7FF4FF4165100F0DE
:1001C800BBFB064B0121188800F06CFD044B012194
:1001D8001888BDE8084000F065BD00BFFC04002099
:1001E8000004002038B5224D224C2888012100F057
:1001F8006AFD0121208800F066FDFFF75BFF1E49BC
:1002080000F084FAFFF756FFFF2100F098FBFFF794
:1002180051FFFF2100F093FBFFF74CFFFF2100F097
:100228008EFB4FF4FA7000F09BF92888002100F04B
:100238004AFD0021208800F046FDFFF73BFF0F4AEA
:10024800002100F0A2FAFFF735FFFF2100F077FB4D
:10025800FFF730FFFF2100F072FBFFF72BFFFF21B4
:1002680000F06DFBBDE838404FF4FA7000F078B943
:10027800FC04002000040020201108082A110808A6
:1002880008B500F029F8BDE808400021012000F079
:1002980023B900F021B8000008B5024B1B681B6B9E
:1002A800019308BDD001040808B5024B1B68DB6E3A
:1002B800019308BDB801040808B5024B1B685B68C8
:1002C800019308BD9C01040808B5024B1B685B69D3
:1002D800019308BD9C01040808B5024B1B681B6804
:1002E800019308BDB001040808B5024B1B689B6860
:1002F800019308BDB001040808B5024B1B68DB6810
:10030800019308BDB001040808B5024B1B681B69BE
:10031800019308BDB001040808B5024B1B681B6AAD
:10032800019308BDAC01040808B5024B1B685B6A61
:10033800019308BDAC01040808B5024B1B689B6A11
:10034800019308BDAC01040808B5024B1B68DB6AC1
:10035800019308BDAC01040808B5024B1B681B6B70
:10036800019308BDAC01040808B5024B1B685B6B20
:10037800019308BDAC01040808B5024B1B681B6C4F
:10038800019308BDAC01040808B5024B1B68DB6982
:10039800019308BDB401040808B5024B1B681B6A29
:1003A800019308BDB401040808B5024B1B689B699A
:1003B800019308BDC401040808B5024B1B685B6AB9
:1003C800019308BDC401040808B5024B1B689B6A69
:1003D800019308BDC401040808B5024B1B68DB6A19
:1003E800019308BDC401040808B5024B1B681B6BC8
:1003F800019308BDC401040808B5024B1B685B6B78
:10040800019308BDC401040808B5024B1B689B6B27
:10041800019308BDC401040808B5024B1B681B6C96
:10042800019308BDC401040808B5024B1B68DB6CC6
:10043800019308BDC401040808B5024B1B681B6D75
:10044800019308BDC401040808B5024B1B681B686A
:10045800019308BD1C00060808B5024B1B685B68C1
:10046800019308BD1C00060808B5024B1B681B69F0
:10047800019308BD1C00060808B5024B1B685B69A0
:10048800019308BD1C00060808B5024B1B689B6950
:10049800019308BD1C00060808B5024B1B68DB6900
:1004A800019308BD1C00060808B5024B1B681B6AAF
:1004B800019308BD1C00060808B5024B1B685B6861
:1004C800019308BDA401040808B5024B1B685B69C9
:1004D800019308BDA401040808B5024B1B68DB6A38
:1004E800019308BDA401040808B5034B1B68D3F8A1
:1004F8009030019308BD0000A401040808B5034B1F
:100508001B68D3F89C30019308BD0000A4010408BF
:1005180008B5024B1B68DB6B019308BDCC010408CE
:1005280008B5024B1B681B69019308BDC801040884
:1005380008B5024B1B681B68019308BDA00104089D
:1005480008B5024B1B685B68019308BDA00104084D
:1005580008B5024B1B685B6A019308BDA00104083B
:100568000021FFF7B1BF002211461046FFF7D8BFA0
:1005780038B50B4C28252A460021204600F089FD75
:100588004FF0FF3363602580064C074B20462C252F
:1005980040F8043B2A46002100F07BFDA58038BDC9
:1005A800E4060020B40600203C11080810B5836852
:1005B800044613B1032201469847204610BD7047F0
:1005C800F8B5064615460C468F18BC4206D0336867
:1005D80014F8011B9B6830469847F6E72846F8BD93
:1005E8000022007CFFF798BE0021007CFFF79CBE2C
:1005F8000021007CFFF7A0BE0021007CFFF7A4BE0D
:100608000021007CFFF7A8BE10B50446FFF741FDA6
:10061800204610BD10B5044608464FF47A73A3600F
:10062800044B0021207461602360FFF7A5FE20467B
:1006380010BD00BF481108080021007CFFF794BED8
:10064800704710B50446FFF724FD204610BDF8B5E5
:100658000F4600F10806051D002416F8011D0A22A0
:10066800384600F090F8AE42044407D0002CF4D08D
:100678002E21384600F04EF80444EEE72046F8BD37
:1006880010B59DF8084044EA032343EA024242EACF
:100698000161416010BD000037B5044D05609DF84B
:1006A80018500095FFF7ECFF03B030BD7011080833
:1006B800014A024B1A607047371208080C070020DD
:1006C800F8B506460D468F180024BD420CD0336895
:1006D80015F8011B9B6830469847002801DB044445
:1006E800F3E7002C08BF04462046F8BD70B5054660
:1006F8000C46084649B100F0FDFC2B68024621462D
:100708002846BDE87040DB68184770BD08B5FFF79C
:10071800EDFF08BD03689B68184738B50D210546ED
:10072800FFF7F8FF0A2104462846FFF7F3FF2044A5
:1007380038BD012A98BF0A2230B50B468BB000217C
:100748008DF824100DF12304B3FBF2F505FB1233E9
:10075800DBB2092B94BF30333733DBB2214604F8C0
:1007680001392B46002DEFD1FFF7C0FF0BB030BD8C
:1007780010B422B90368C9B29B6810BC1847D2B23A
:1007880010BCFFF7D6BFFFF7F3BF0CB42DE9F04359
:1007980087B000AF07F1380454F8049B05460E46AD
:1007A80023464A461421381D3C60FFF7D1FE132822
:1007B80005D8391D2846FFF799FF044613E000F1D4
:1007C800080323F00703E846ADEB030D411C23465D
:1007D8004A4668463C60FFF7BBFE69462846FFF775
:1007E80085FF0446C5461EB12846FFF796FF044418
:1007F80020461C37BD46BDE8F04302B0704710B52F
:100808000446FFF7D3FE204610BD0000034800232E
:100818008360034A034900F0D5BA00BF10070020DF
:100828006C04002007080808704710B50446FFF755
:1008380030FC204610BD000070B504460E46074B3C
:100848000025036040F80C5FFFF726FD304626714F
:10085800FFF79AFDA560204670BD00BF6812080822
:100868000079FFF799BD00004FF69C7337B50D4C22
:10087800002563804FF6FF732846A3802570FFF795
:100888001BFE02A840F8045D2A462946FFF70CFD26
:10089800019B1E2B04D10323237011236580A380A1
:1008A80003B030BD20070020024B1A68024B1A60C3
:1008B800704700BF040400202807002041747047D7
:1008C800007CFFF7A9BD007CFFF77EBD007CFFF729
:1008D8008BBD007CFFF780BD007CFFF78DBD70B538
:1008E800457C04460E4625B9007CFFF795FD002897
:1008F80005DD3146207CBDE87040FFF75DBD284628
:1009080070BD000010B5044608461146002262601A
:100918004FF47A72A260054A207422600122627440
:100928001A46FFF741FD204610BD00BFA412080873
:100938000023007CFFF778BD0022FFF7F9BF007C99
:10094800FFF77ABD007CFFF75FBD000038B50C4D9E
:10095800296811F0010411D12846FFF79CFB68B102
:10096800084A2146084B0948FFF7CCFF2846FFF7FD
:1009780097FB074A0749054800F024FA034838BDA1
:10098800C4070020C8070020400700202C070020CB
:100998006C040020AF0008084174704770470021BC
:1009A800007CFFF771BD0121007CFFF76DBD007C65
:1009B800FFF762BD007CFFF757BD38B50446007CE1
:1009C8000D46FFF759FD002801DC607C20B129465F
:1009D800207CFFF761FD012038BD007CFFF764BD76
:1009E80010B50446FFF755FB204610BD10B5044668
:1009F800002363604FF47A73A360054B08462360B5
:100A08000123217463741146FFF71EFD204610BDB3
:100A1800D41208080022007CFFF71EBD10B504465A
:100A28001422002100F035FB054B20466360054B7E
:100A3800E36040F2011323818123238210BD00BFAC
:100A4800D10800205008002030B50E4D87B001A80D
:100A5800FFF7E4FF296811F0010410D12846FFF7D9
:100A68001AFB60B101AA21460748FFF7BFFF2846D5
:100A7800FFF716FB054A0649034800F0A3F90248A8
:100A880007B030BD4C080020D40900206C040020B9
:100A9800A509080810B504461422002100F0F9FA47
:100AA800054B20466360054BE36040F20113238148
:100AB8008123238210BD00BF840A0020EC09002096
:100AC80010B50E4C86B001A8FFF7E4FF2368DB07DA
:100AD80010D42046FFF7DFFA60B101AA01210848C7
:100AE800FFF784FF2046FFF7DBFA064A0649044869
:100AF80000F068F9024806B010BD00BFE809002000
:100B0800700A00206C040020A509080808B5184BD5
:100B180033B1FFF799FF03681B69984700281EDC6B
:100B2800144B33B1FFF712FF03681B69984700287D
:100B380018DC114B0BB1AFF30080104B0BB1FFF772
:100B4800DFFA0F4B0BB1FFF715FB0E4B7BB1FFF72D
:100B5800B7FF03681B699847002806DC08BDAFF398
:100B68000080DDE7AFF30080E3E7AFF3008008BD66
:100B78000000000000000000000000000901080853
:100B88007D0108080000000008B5FFF7BFFFFFF768
:100B98009BFB014B186008BD900B00200248034ADC
:100BA8000349121A00F06ABA0040024004400240A9
:100BB800A013080807B5002300931A466FF07701C1
:100BC800FFF79CFC03B05DF804FB000007B5438801
:100BD8000A2B08D0502B09D1094B1B683BB103B035
:100BE8005DF804EB1847FFF7E5FF06E000230093E4
:100BF8001A466FF07701FFF781FC03B05DF804FB3C
:100C0800880B002038B5104C104D2368AB42104BB0
:100C18000CBF012200221A7002D0FFF7BFFF256027
:100C2800FFF74AFB00F03EFA0A4B1BB1FFF744FB03
:100C3800AFF3008000210748FFF76AFCBDE83840A1
:100C480000210548FFF750BC004002401E1C279AAF
:100C58008C0B002000000000D50B080810B50446D6
:100C68000F48FFF7FDFD28B1A4F10D03022B01D8B1
:100C7800002010BD00F040F8FFF7DEFC08B1012CA1
:100C8800F6D9FFF763FEFFF75DFE18B1A4F1120372
:100C9800012BEDD92E2C8CBF0020012010BD00BFE8
:100CA800B40B00202E2838B504460D460AD8FF2973
:100CB80008D0FFF7D3FF28B129462046BDE83840C1
:100CC800FFF712BB38BD38B504460D46FFF714FBD5
:100CD800FF2810D0062804D84D2323FA00F0C307B4
:100CE80009D42046FFF7BAFF28B129462046BDE8B7
:100CF8003840FFF709BB38BD38B50B4D296811F0EE
:100D080001040FD12846FFF7C6F958B12146074814
:100D1800FFF780FC2846FFF7C3F9054A0549034851
:100D280000F050F8014838BD940B0020980B0020C3
:100D38006C040020C705080813B5084C00231A46A0
:100D4800194600932046FFF7A7FC2046044A0549A8
:100D580002B0BDE8104000F035B800BFAC0B002071
:100D68006C0400204906080870B5114E114D124C4C
:100D780000213046FFF760FD3046104E2A462146D6
:100D880000F020F801213046FFF756FD30460C4EA2
:100D98002A46214600F016F802213046FFF74CFD9E
:100DA8002A4621463046BDE8704000F00BB800BF27
:100DB800B40B00206C04002031080808C40B002084
:100DC800D40B00200B460146184600F049B9000034
:100DD800244B1A68D0075CBF01221A60224B1A689C
:100DE800D1075CBF01221A60204B1A68D2075CBF8A
:100DF80001221A601E4B1A68D0075CBF01221A60D4
:100E08001C4B1A68D1075CBF01221A601A4B1A687A
:100E1800D2075CBF01221A60184B1A68D0075CBF62
:100E280001221A60164B1A68D1075CBF01221A60AA
:100E3800144B1A68D2075CBF01221A60124B1A6859
:100E4800D0075CBF01221A60104B1A68D1075CBF3B
:100E580001221A600E4B1A68D2075CBF01221A6081
:100E6800704700BF100C00200C0C0020080C00205C
:100E7800040C0020000C0020FC0B0020F80B0020C4
:100E8800F40B0020F00B0020EC0B0020E80B0020F6
:100E9800E40B0020184B1A68D1075CBF01221A60C6
:100EA800164B1A68D2075CBF01221A60144B1A68E5
:100EB800D0075CBF01221A60124B1A68D1075CBFC9
:100EC80001221A60104B1A68D2075CBF01221A600F
:100ED8000E4B1A68D0075CBF01221A600C4B1A68C7
:100EE800D1075CBF01221A600A4B1A68D2075CBF9F
:100EF80001221A60704700BF300C00202C0C002023
:100F0800280C0020240C0020200C00201C0C0020A1
:100F1800180C0020140C0020184B1A68D1075CBF6D
:100F280001221A60164B1A68D2075CBF01221A60A8
:100F3800144B1A68D0075CBF01221A60124B1A685A
:100F4800D1075CBF01221A60104B1A68D2075CBF38
:100F580001221A600E4B1A68D0075CBF01221A6082
:100F68000C4B1A68D1075CBF01221A600A4B1A6839
:100F7800D2075CBF01221A60704700BF500C0020E6
:100F88004C0C0020480C0020440C0020400C002091
:100F98003C0C0020380C0020340C0020244B1A682C
:100FA800D0075CBF01221A60224B1A68D1075CBFC8
:100FB80001221A60204B1A68D2075CBF01221A600E
:100FC8001E4B1A68D0075CBF01221A601C4B1A68B6
:100FD800D1075CBF01221A601A4B1A68D2075CBF9E
:100FE80001221A60184B1A68D0075CBF01221A60E8
:100FF800164B1A68D1075CBF01221A60144B1A6895
:10100800D2075CBF01221A60124B1A68D0075CBF76
:1010180001221A60104B1A68D1075CBF01221A60BE
:101028000E4B1A68D2075CBF01221A60704700BFD6
:10103800800C00207C0C0020780C0020740C002010
:10104800700C00206C0C0020680C0020640C002040
:10105800600C00205C0C0020580C0020540C002070
:1010680010B5054C13462CB10A4601460220AFF3D1
:10107800008010BD204610BD0000000010B5431EC2
:101088000A44914204D011F8014B03F8014FF8E7E4
:1010980010BD03460244934202D003F8011BFAE74D
:1010A8007047000038B5124B05461C68A36BD3B9CE
:1010B8001820FFF73DFA43F20E33A06303804AF687
:1010C800CD33438041F2342383804EF26D63C38075
:1010D8004DF6EC630381052343810B2383810122B1
:1010E8000023C0E90423A36B00221D615A6138BDA7
:1010F80068040020034613F8012B002AFBD1181AB4
:10110800013870471D0008085D00080889000808B4
:101118008D000808000000006E302E76616C3D36A8
:1011280037006E302E76616C3D36360000000000C8
:10113800000000006F050808000000000000000023
:10114800C705080811060808E9050808C9050808B8
:10115800F1050808F905080801060808090608083D
:1011680000000000000000005706080849060808AB
:101178004B06080866006C6E00666E00636F646557
:101188000064657461696C000D0A002530313075A2
:1011980020005D20002564002C200028293A20002A
:1011A800205B00636F6465203D200025690064654D
:1011B8007461696C73203D20006261756400536539
:1011C8007269616C0055534253657269616C3100F4
:1011D8007479706500706172616D00636D64006997
:1011E8006400686E64007374726D0066696C7400E4
:1011F8006C766C0061646448616E646C6572007240
:10120800656D6F766548616E646C657200656E75B4
:101218006D48616E646C657273004A534F4E537427
:101228007265616D4C6F6748616E646C65720061D0
:101238007070006E6F6E6500747261636500696E30
:10124800666F007761726E006572726F720070610E
:101258006E696300616C6C00000000000000000013
:1012680031080808330808085A00252B3033643A37
:10127800253032750025592D256D2D2564542548B6
:101288003A254D3A2553257A0061736374696D6573
:10129800000000000000000000000000AF00080887
:1012A800B1000808E7080808C9060808CF080808B0
:1012B800DB080808D5080808E1080808C508080870
:1012C800C90808080000000000000000A509080877
:1012D800E9090808C3090808C9060808BD09080873
:1012E800A7090808AF090808E3090808B7090808A2
:1012F800A10908080000000000000000000000002C
:1013080000000000000000000000000000000000D5
:1013180000000000000000000000000000000000C5
:1013280000000000000000000000000000000000B5
:1013380000000000000000000000000000000000A5
:101348000000000000000000000000000000000095
:101358000000000043000000890208089B020808FA
:1013680079050808B9060808150808087108080862
:10137800B1080808410D0808710D0808D90D0808BA
:101388009D0E0808210F0808A50F08080000000096
:0813980000000000000000004D
:0413A0000000000049
:1013A400070000009112080800000000FC12080861
:1013B4001C1308083C13080800000000000000008B
:1013C40000000000000000005C130808000000009A
:1013D4000000000000000000000000000000000009
:1013E40000000000000000000000000000000000F9
:1013F40000000000000000000000000000000000E9
:0C140400000000000000000008040020B0
:10141000FFFFFFFF00000102030405060708090A99
:101420000B0C0D0E0F101112131415161718191A94
:081430001B1C1D1E1F202800DB
:04143800785634129C
:0400000508080018CF
:00000001FF
