:020000040808EA
:1000000000000808A8130808000005000A00050100
:080010000402EA0300000000F5
:100018008810080809480A4908B5884205D0094ADD
:10002800824202D0121A00F0E7FF0748074A00216F
:10003800121A00F0ECFF064808BD00BF00040020BB
:10004800141308086C0400206C040020640B0020C2
:10005800640B002070B500F093FD074B074C1E465B
:10006800E41AA4080025A54204D056F8253098477C
:100078000135F8E770BD00BFDC1208080C1308084A
:1000880000F052B808B500F06DF8BDE8084000F07F
:1000980039BD00F013BA0078B0FA80F04009704713
:1000A800012303707047704710B50446FFF7F1FF4E
:1000B800204610BD10B50C4C2368DB0711D4204630
:1000C800FFF7E9FF68B1094A0321094B094800F025
:1000D800D7FB2046FFF7E4FF074A0849054800F028
:1000E8002FFE044810BD00BFF40400207004002057
:1000F80010050020FC0400206C040020AF00080854
:1001080010B5FFF7D7FF074B044653B100F0D8FBF3
:1001180038B1236820461B699847002801DDAFF3F2
:10012800008010BD0000000008B500F04BFC4FF443
:10013800165100F02DFCFFF7BDFF4FF4165100F0EB
:10014800B9FB064B0121188800F06AFD044B012118
:100158001888BDE8084000F063BD00BFF80400201F
:100168000004002038B5224D224C2888012100F0D7
:1001780068FD0121208800F064FDFFF79BFF1E4900
:1001880000F082FAFFF796FFFF2100F096FBFFF7D9
:1001980091FFFF2100F091FBFFF78CFFFF2100F09A
:1001A8008CFB4FF4FA7000F099F92888002100F0D0
:1001B80048FD0021208800F044FDFFF77BFF0F4A2F
:1001C800002100F0A0FAFFF775FFFF2100F075FB92
:1001D800FFF770FFFF2100F070FBFFF76BFFFF21B7
:1001E80000F06BFBBDE838404FF4FA7000F076B9C8
:1001F800F8040020000400209C100808A610080835
:1002080008B500F027F8BDE808400021012000F0FB
:1002180021B9000008B5024B1B681B6B019308BD90
:10022800D001040808B5024B1B68DB6E019308BDBA
:10023800B801040808B5024B1B685B68019308BD48
:100248009C01040808B5024B1B685B69019308BD53
:100258009C01040808B5024B1B681B68019308BD84
:10026800B001040808B5024B1B689B68019308BDE0
:10027800B001040808B5024B1B68DB68019308BD90
:10028800B001040808B5024B1B681B69019308BD3F
:10029800B001040808B5024B1B681B6A019308BD2E
:1002A800AC01040808B5024B1B685B6A019308BDE2
:1002B800AC01040808B5024B1B689B6A019308BD92
:1002C800AC01040808B5024B1B68DB6A019308BD42
:1002D800AC01040808B5024B1B681B6B019308BDF1
:1002E800AC01040808B5024B1B685B6B019308BDA1
:1002F800AC01040808B5024B1B681B6C019308BDD0
:10030800AC01040808B5024B1B68DB69019308BD02
:10031800B401040808B5024B1B681B6A019308BDA9
:10032800B401040808B5024B1B689B69019308BD1A
:10033800C401040808B5024B1B685B6A019308BD39
:10034800C401040808B5024B1B689B6A019308BDE9
:10035800C401040808B5024B1B68DB6A019308BD99
:10036800C401040808B5024B1B681B6B019308BD48
:10037800C401040808B5024B1B685B6B019308BDF8
:10038800C401040808B5024B1B689B6B019308BDA8
:10039800C401040808B5024B1B681B6C019308BD17
:1003A800C401040808B5024B1B68DB6C019308BD47
:1003B800C401040808B5024B1B681B6D019308BDF6
:1003C800C401040808B5024B1B681B68019308BDEB
:1003D8001C00060808B5024B1B685B68019308BD42
:1003E8001C00060808B5024B1B681B69019308BD71
:1003F8001C00060808B5024B1B685B69019308BD21
:100408001C00060808B5024B1B689B69019308BDD0
:100418001C00060808B5024B1B68DB69019308BD80
:100428001C00060808B5024B1B681B6A019308BD2F
:100438001C00060808B5024B1B685B68019308BDE1
:10044800A401040808B5024B1B685B69019308BD49
:10045800A401040808B5024B1B68DB6A019308BDB8
:10046800A401040808B5034B1B68D3F89030019326
:1004780008BD0000A401040808B5034B1B68D3F8A5
:100488009C30019308BD0000A401040808B5024B84
:100498001B68DB6B019308BDCC01040808B5024B4F
:1004A8001B681B69019308BDC801040808B5024B05
:1004B8001B681B68019308BDA001040808B5024B1E
:1004C8001B685B68019308BDA001040808B5024BCE
:1004D8001B685B6A019308BDA00104080021FFF7AF
:1004E800B1BF002211461046FFF7D8BF38B50B4CF4
:1004F80028252A460021204600F089FD4FF0FF33C9
:1005080063602580064C074B20462C2540F8043BA9
:100518002A46002100F07BFDA58038BDC4050020D7
:1005280094050020B810080810B58368044613B174
:10053800032201469847204610BD7047F8B5064685
:1005480015460C468F18BC4206D0336814F8011BB8
:100558009B6830469847F6E72846F8BD0022007C9D
:10056800FFF798BE0021007CFFF79CBE0021007CAD
:10057800FFF7A0BE0021007CFFF7A4BE0021007C8D
:10058800FFF7A8BE10B50446FFF783FD204610BD4F
:1005980010B5044608464FF47A73A360044B002153
:1005A800207461602360FFF7A5FE204610BD00BFE0
:1005B800C41008080021007CFFF794BE704710B5EE
:1005C8000446FFF766FD204610BDF8B50F4600F15A
:1005D8000806051D002416F8011D0A22384600F0F9
:1005E80090F8AE42044407D0002CF4D02E213846AF
:1005F80000F04EF80444EEE72046F8BD10B59DF82B
:10060800084044EA032343EA024242EA01614160A6
:1006180010BD000037B5044D05609DF818500095D1
:10062800FFF7ECFF03B030BDEC100808014A024B9D
:100638001A607047B3110808EC050020F8B50646A3
:100648000D468F180024BD420CD0336815F8011BE5
:100658009B6830469847002801DB0444F3E7002CE8
:1006680008BF04462046F8BD70B505460C46084646
:1006780049B100F0FDFC2B68024621462846BDE83A
:100688007040DB68184770BD08B5FFF7EDFF08BD7F
:1006980003689B68184738B50D210546FFF7F8FF32
:1006A8000A2104462846FFF7F3FF204438BD012AF3
:1006B80098BF0A2230B50B468BB000218DF8241064
:1006C8000DF12304B3FBF2F505FB1233DBB2092B62
:1006D80094BF30333733DBB2214604F801392B4657
:1006E800002DEFD1FFF7C0FF0BB030BD10B422B919
:1006F8000368C9B29B6810BC1847D2B210BCFFF798
:10070800D6BFFFF7F3BF0CB42DE9F04387B000AFB5
:1007180007F1380454F8049B05460E4623464A461A
:100728001421381D3C60FFF7D1FE132805D8391D68
:100738002846FFF799FF044613E000F1080323F069
:100748000703E846ADEB030D411C23464A466846BD
:100758003C60FFF7BBFE69462846FFF785FF044665
:10076800C5461EB12846FFF796FF044420461C37AD
:10077800BD46BDE8F04302B0704710B50446FFF728
:10078800D3FE204610BD0000034800238360034ABF
:10079800034900F0D5BA00BFF00500206C04002022
:1007A80083070808704710B50446FFF772FC204617
:1007B80010BD000070B504460E46074B00250360C7
:1007C80040F80C5FFFF726FD30462671FFF79AFDCB
:1007D800A560204670BD00BFE41108080079FFF746
:1007E80099BD00004FF69C7337B50D4C002563800A
:1007F8004FF6FF732846A3802570FFF71BFE02A85B
:1008080040F8045D2A462946FFF70CFD019B1E2B84
:1008180004D10323237011236580A38003B030BD66
:1008280000060020024B1A68024B1A60704700BF8E
:10083800040400200806002041747047007CFFF77C
:10084800A9BD007CFFF77EBD007CFFF78BBD007C57
:10085800FFF780BD007CFFF78DBD70B5457C044671
:100868000E4625B9007CFFF795FD002805DD3146C9
:10087800207CBDE87040FFF75DBD284670BD0000D4
:1008880010B5044608461146002262604FF47A7299
:10089800A260054A20742260012262741A46FFF79A
:1008A80041FD204610BD00BF201208080023007C2F
:1008B800FFF778BD0022FFF7F9BF007CFFF77ABD8C
:1008C800007CFFF75FBD000038B50C4D296811F0BA
:1008D800010411D12846FFF7DEFB68B1084A21461A
:1008E800084B0948FFF7CCFF2846FFF7D9FB074A12
:1008F8000749054800F024FA034838BDA40600203B
:10090800A8060020200600200C0600206C04002009
:10091800AF0008084174704770470021007CFFF75A
:1009280071BD0121007CFFF76DBD007CFFF762BD42
:10093800007CFFF757BD38B50446007C0D46FFF72D
:1009480059FD002801DC607C20B12946207CFFF796
:1009580061FD012038BD007CFFF764BD10B5044679
:10096800FFF797FB204610BD10B5044600236360CF
:100978004FF47A73A360054B084623600123217462
:1009880063741146FFF71EFD204610BD501208087B
:100998000022007CFFF71EBD10B50446142200217A
:1009A80000F035FB054B20466360054BE36040F2E1
:1009B800011323818123238210BD00BFB1070020CA
:1009C8003007002030B50E4D87B001A8FFF7E4FFCF
:1009D800296811F0010410D12846FFF75CFB60B1CB
:1009E80001AA21460748FFF7BFFF2846FFF758FB33
:1009F800054A0649034800F0A3F9024807B030BD8C
:100A08002C070020B40800206C04002021090808E5
:100A180010B504461422002100F0F9FA054B2046CF
:100A28006360054BE36040F2011323818123238235
:100A380010BD00BF64090020CC08002010B50E4C82
:100A480086B001A8FFF7E4FF2368DB0710D420462F
:100A5800FFF721FB60B101AA01210848FFF784FFD5
:100A68002046FFF71DFB064A0649044800F068F9CE
:100A7800024806B010BD00BFC80800205009002079
:100A88006C0400202109080808B5184B33B1FFF79A
:100A980099FF03681B69984700281EDC144B33B183
:100AA800FFF712FF03681B699847002818DC114BF1
:100AB8000BB1AFF30080104B0BB1FFF721FB0F4BCD
:100AC8000BB1AFF300800E4B7BB1FFF7B7FF0368A4
:100AD8001B699847002806DC08BDAFF30080DDE7F6
:100AE800AFF30080E3E7AFF3008008BD000000002B
:100AF80000000000000000000901080800000000D4
:100B08000000000008B5FFF7BFFFFFF79BFB014B94
:100B1800186008BD700A00200248034A0349121AE7
:100B280000F06ABA0040024004400240101308086E
:100B380007B5002300931A466FF07701FFF79CFC76
:100B480003B05DF804FB000007B543880A2B08D002
:100B5800502B09D1094B1B683BB103B05DF804EB7E
:100B68001847FFF7E5FF06E0002300931A466FF0E9
:100B78007701FFF781FC03B05DF804FB680A0020E9
:100B880038B5104C104D2368AB42104B0CBF0122F6
:100B980000221A7002D0FFF7BFFF2560FFF74AFB5B
:100BA80000F03EFA0A4B1BB1FFF744FBAFF300809D
:100BB80000210748FFF76AFCBDE8384000210548D6
:100BC800FFF750BC004002401E1C279A6C0A002008
:100BD80000000000510B080810B504460F48FFF745
:100BE800FDFD28B1A4F10D03022B01D8002010BD92
:100BF80000F040F8FFF7DEFC08B1012CF6D9FFF74A
:100C080063FEFFF75DFE18B1A4F11203012BEDD9C5
:100C18002E2C8CBF0020012010BD00BF940A00209C
:100C28002E2838B504460D460AD8FF2908D0FFF704
:100C3800D3FF28B129462046BDE83840FFF712BB4C
:100C480038BD38B504460D46FFF714FBFF2810D011
:100C5800062804D84D2323FA00F0C30709D42046F8
:100C6800FFF7BAFF28B129462046BDE83840FFF70C
:100C780009BB38BD38B50B4D296811F001040FD1F7
:100C88002846FFF708FA58B121460748FFF780FCC5
:100C98002846FFF705FA054A0549034800F050F8C9
:100CA800014838BD740A0020780A00206C0400202E
:100CB8004305080813B5084C00231A461946009343
:100CC8002046FFF7A7FC2046044A054902B0BDE8C4
:100CD800104000F035B800BF8C0A00206C040020DA
:100CE800C505080870B5114E114D124C002130464B
:100CF800FFF760FD3046104E2A46214600F020F8E6
:100D080001213046FFF756FD30460C4E2A46214653
:100D180000F016F802213046FFF74CFD2A4621461E
:100D28003046BDE8704000F00BB800BF940A0020C0
:100D38006C040020AD070808A40A0020B40A0020AB
:100D48000B460146184600F049B90000244B1A68C2
:100D5800D0075CBF01221A60224B1A68D1075CBF1A
:100D680001221A60204B1A68D2075CBF01221A6060
:100D78001E4B1A68D0075CBF01221A601C4B1A6808
:100D8800D1075CBF01221A601A4B1A68D2075CBFF0
:100D980001221A60184B1A68D0075CBF01221A603A
:100DA800164B1A68D1075CBF01221A60144B1A68E7
:100DB800D2075CBF01221A60124B1A68D0075CBFC9
:100DC80001221A60104B1A68D1075CBF01221A6011
:100DD8000E4B1A68D2075CBF01221A60704700BF29
:100DE800F00A0020EC0A0020E80A0020E40A0020AB
:100DF800E00A0020DC0A0020D80A0020D40A0020DB
:100E0800D00A0020CC0A0020C80A0020C40A00200A
:100E1800184B1A68D1075CBF01221A60164B1A6872
:100E2800D2075CBF01221A60144B1A68D0075CBF56
:100E380001221A60124B1A68D1075CBF01221A609E
:100E4800104B1A68D2075CBF01221A600E4B1A6851
:100E5800D0075CBF01221A600C4B1A68D1075CBF2F
:100E680001221A600A4B1A68D2075CBF01221A6075
:100E7800704700BF100B00200C0B0020080B00204F
:100E8800040B0020000B0020FC0A0020F80A0020B8
:100E9800F40A0020184B1A68D1075CBF01221A60B7
:100EA800164B1A68D2075CBF01221A60144B1A68E5
:100EB800D0075CBF01221A60124B1A68D1075CBFC9
:100EC80001221A60104B1A68D2075CBF01221A600F
:100ED8000E4B1A68D0075CBF01221A600C4B1A68C7
:100EE800D1075CBF01221A600A4B1A68D2075CBF9F
:100EF80001221A60704700BF300B00202C0B002025
:100F0800280B0020240B0020200B00201C0B0020A5
:100F1800180B0020140B0020244B1A68D0075CBF64
:100F280001221A60224B1A68D1075CBF01221A609D
:100F3800204B1A68D2075CBF01221A601E4B1A6840
:100F4800D0075CBF01221A601C4B1A68D1075CBF2E
:100F580001221A601A4B1A68D2075CBF01221A6074
:100F6800184B1A68D0075CBF01221A60164B1A6822
:100F7800D1075CBF01221A60144B1A68D2075CBF04
:100F880001221A60124B1A68D0075CBF01221A604E
:100F9800104B1A68D1075CBF01221A600E4B1A6801
:100FA800D2075CBF01221A60704700BF600B0020A7
:100FB8005C0B0020580B0020540B0020500B002025
:100FC8004C0B0020480B0020440B0020400B002055
:100FD8003C0B0020380B0020340B002010B5054CCA
:100FE80013462CB10A4601460220AFF3008010BD1B
:100FF800204610BD0000000010B5431E0A4491426F
:1010080004D011F8014B03F8014FF8E710BD03466F
:101018000244934202D003F8011BFAE7704700002C
:1010280038B5124B05461C68A36BD3B91820FFF7D7
:101038003DFA43F20E33A06303804AF6CD33438072
:1010480041F2342383804EF26D63C3804DF6EC6326
:101058000381052343810B23838101220023C0E9F7
:101068000423A36B00221D615A6138BD6804002067
:10107800034613F8012B002AFBD1181A01387047D0
:101088001D0008085D000808890008088D00080888
:10109800000000006E302E76616C3D3637006E30F1
:1010A8002E76616C3D36360000000000000000001E
:1010B800EB040808000000000000000043050808D1
:1010C8008D05080865050808450508086D05080820
:1010D800750508087D050808850508080000000052
:1010E80000000000D3050808C5050808C70508085A
:1010F80066006C6E00666E00636F646500646574FC
:1011080061696C000D0A00253031307520005D20C2
:10111800002564002C200028293A2000205B006369
:101128006F6465203D200025690064657461696C01
:1011380073203D2000626175640053657269616CBB
:101148000055534253657269616C3100747970655A
:1011580000706172616D00636D6400696400686E9F
:1011680064007374726D0066696C74006C766C0050
:1011780061646448616E646C65720072656D6F7657
:101188006548616E646C657200656E756D48616E68
:10119800646C657273004A534F4E53747265616D87
:1011A8004C6F6748616E646C657200617070006EA8
:1011B8006F6E6500747261636500696E666F0077B3
:1011C80061726E006572726F720070616E696300A1
:1011D800616C6C000000000000000000AD0708080A
:1011E800AF0708085A00252B3033643A253032758A
:1011F8000025592D256D2D25645425483A254D3A4D
:101208002553257A0061736374696D6500000000D9
:101218000000000000000000AF000808B100080846
:1012280063080808450608084B080808570808080E
:10123800510808085D080808410808084508080812
:1012480000000000000000002109080865090808DE
:101258003F09080845060808390908082309080845
:101268002B0908085F090808330908081D09080838
:101278000000000000000000000000000000000066
:101288000000000000000000000000000000000056
:101298000000000000000000000000000000000046
:1012A8000000000000000000000000000000000036
:1012B8000000000000000000000000000000000026
:1012C8000000000000000000000000000000000016
:1012D8004300000009020808F50408083506080854
:1012E80091070808ED0708082D080808BD0C08082C
:1012F800ED0C0808550D0808190E08089D0E080879
:08130800210F0808000000009D
:0413100000000000D9
:10131400070000000D1208080000000078120808F9
:1013240098120808B8120808000000000000000025
:101334000000000000000000D812080800000000AF
:101344000000000000000000000000000000000099
:101354000000000000000000000000000000000089
:101364000000000000000000000000000000000079
:0C13740000000000000000000804002041
:10138000FFFFFFFF00000102030405060708090A2A
:101390000B0C0D0E0F101112131415161718191A25
:0813A0001B1C1D1E1F2028006C
:0413A800785634122D
:0400000508080018CF
:00000001FF
