:020000040808EA
:100000000000080880290808000005000A00050112
:080010000402EA0300000000F5
:10001800E024080809480A4908B5884205D0094A71
:10002800824202D0121A02F05DF90748074A0021FD
:10003800121A02F062F9064808BD00BF0004002049
:10004800E42808087404002078040020800D0020AB
:10005800800D002070B501F055FA074B074C1E467D
:10006800E41AA4080025A54204D056F8253098477C
:100078000135F8E770BD00BFA4280808D82808088B
:1000880000F08EB808B500F013F9BDE8084001F09B
:10009800FBB900F0D9BD0078B0FA80F0400970478C
:1000A8000123037070477047704710B50446FFF787
:1000B800F0FF204610BD000010B50C4C2368DB078C
:1000C80011D42046FFF7E7FF68B1094A0321094B1D
:1000D800094801F097F82046FFF7E2FF074A084968
:1000E800054801F0EFFA044810BD00BF9C07002046
:1000F800020500207E0400208807002078040020E4
:10010800AF00080810B5FFF7D7FF074B044653B1F7
:1001180001F098F838B1236820461B6998470028F1
:1001280001DDAFF3008010BD0000000010B50C4CDD
:100138002368DB0711D42046FFF7ADFF68B1094AF1
:100148000421094B094801F05DF82046FFF7A8FF94
:10015800074A0849054801F0B5FA044810BD00BF30
:100168000C060020860500201006002098060020B6
:1001780078040020AF00080810B5FFF7D7FF074B39
:10018800044653B101F05EF838B1236820461B6974
:100198009847002801DDAFF3008010BD0000000083
:1001A80010B51C4C002220461B4900F068FD40F2A7
:1001B800FF7200234FF48071204600F068FD01F0C3
:1001C800C3F84FF4165101F0A5F8FFF775FF4FF487
:1001D800165101F031F801F039F8036801211B6A62
:1001E8009847FFF7A3FF4FF4165101F025F801F0E7
:1001F8002DF84FF4165101F01FF8084B012118880B
:1002080001F0D0F9BDE81040054B0121188801F034
:10021800C9B900BF0A06002048E80100A00700206D
:100228000004002030B5002385B010221C4C009338
:100238008DF804208DF805308DF806308DF80730DC
:1002480002930393174D6946174800F01CFD28B325
:10025800009BB3F5807F07D19DF808102088B1FA7C
:1002680081F1490901F0AFF9009BB3F5007F07D18F
:100278009DF808102888B1FA81F1490901F0A3F91D
:10028800009BB3F5407FDED19DF80810074BB1FA0B
:1002980081F11878490901F096F9D3E705B030BD26
:1002A800940600207C0400200A0600208407002011
:1002B800F7B5FFF7B7FF00F093FB0446FFF736FFEB
:1002C80003681B699847054648B1FFF72FFF036885
:1002D8005B699847C1B2384800F0F0FAEEE700F0E1
:1002E8007FFB001BB0F5FA7FE8D3344E344C3088DE
:1002F800012101F068F92088012101F064F92E4BF1
:1003080037461A7826462F4CF2B183F85950186EA2
:1003180001F078FC26A3D3E9002301F0D9FC0022E0
:10032800294B01F0FFFD294DC5E9000101F00CF84A
:1003380002230093D5E9002300F09AFED5E90001D5
:1003480001F09EFF207006E00A23237000F0FCFFF6
:100358001F4900F086FD3888002101F034F900219A
:10036800308801F030F9FFF7A7FE1A4A002100F0A3
:100378008DFEFFF7A1FE0A22217800F0A6FDFFF707
:100388009BFEFF2100F05BFFFFF796FEFF2100F0C8
:1003980056FFFFF791FEFF2100F051FF00F0D4FF58
:1003A8000D4903B0BDE8F04000F05BBDAFF300803D
:1003B8006F1283C0CAA1FD3FAC060020A007002031
:1003C800000400200404002000005940A807002071
:1003D80019250808272508082F25080810B500F052
:1003E80007FB0021012000F0FBFB084C084800F047
:1003F80015F820231A460021204600F035FC204637
:10040800BDE81040034A044901F05CB90A0600201F
:10041800AC06002078040020B10008080022022160
:1004280002704270828082600273028242610276A8
:100438008283026280F824200285C26280F830201C
:1004480080F8382080F83920C26380F8482080F886
:100458004920C26480F8582080F85920026680F844
:10046800682080F86920026780F8782080F8792071
:10047800C0F8802080F8882080F88920C0F8902073
:1004880080F8982080F89920C0F8A02080F8A8204B
:1004980080F8A92080F8B91080F8BA2080F8BB202D
:1004A80080F8BC20C0F8C020C0F8C420C0F8C8201C
:1004B800C0F8CC20C0F8D020C0F8D42080F8AA20FA
:1004C8007047A1F14103052B02D8A1F1370070470D
:1004D800A1F16103052B94BFA1F15700A1F13000F0
:1004E800704738B5044605782D2D08BF01342046DD
:1004F80001F0E6FE64235843224614F8013BA3F1B9
:1005080030010929F8D92E2B0BD15378303B092B10
:1005180007D80A2101FB03009378303B092B98BFC9
:10052800C0182D2D08BF404238BD000038B504461C
:100538000D4601F0C5FE6423B0FBF3F203FB120085
:10054800114B2A804343204602780446A2F1300129
:10055800092900F10100F7D92E2A0BD10A490A20EE
:1005680014F8012F303A092A04D8B1FBF0F101FB45
:100578000233F5E703EB830301330322B3FBF2F302
:100588006B6000232B7238BD80969800034610B527
:1005980053F81C2F044642605A6882601B7A037322
:1005A800034653F8282F02615A6842611B7A037682
:1005B80000F016FA012360636370237010BD10B554
:1005C80083680446436000F00BFA0123E06063701F
:1005D800237010BD10B583680446436000F000FA2C
:1005E8000123E0606370237010BD10B5044608460F
:1005F800FFF777FFA06010BD10B50446084601F06C
:100608005FFEA06010BD10B5C3680446836000F0AB
:10061800E7F9012360606370237010BD10B50446CC
:100628000846FFF75EFFE06010BD10B5C3680446DA
:10063800836000F0D5F9012360606370237010BDFA
:1006480010B50446084601F03BFEE06010BD10B549
:1006580001460446103001F08BFE00F0C1F9012379
:10066800206284F8253084F8243010BD102201F06F
:100678008FBE0000F8B590F8A9500446002D67D049
:1006880090F8AA10FFF71DFF94F8AB100246204619
:10069800FFF717FF94F8A83000EB0210C0B28342AE
:1006A8004FD1D4F8D4300133C4F8D43094F8BC30E6
:1006B80023B1D4F8CC300133C4F8CC3094F8B93035
:1006C800B3B1012B2AD104F13800FFF778FF04F108
:1006D8004800FFF77FFF94F8BC30FBB12046FFF7D6
:1006E80055FF04F15800FFF78EFF04F1680013E08E
:1006F80004F14800FFF76EFF94F8BC3033B1204690
:10070800FFF744FF04F17800FFF77DFF04F188004C
:10071800FFF78BFF04F19800FFF775FFD4F8C4606A
:10072800002E00F0C580D4F8C430B06A996A01F090
:1007380015FE002840F0BC803046FFF788FF366B76
:10074800EEE7D4F8D03000250133C4F8D030AFE05C
:1007580090F8BA202ABB00F1AA075649384601F09A
:10076800FDFD08B9012308E05349384601F0F6FDBC
:1007780010B984F8B95002E0022384F8B930D4F8EB
:10078800C030C4F8C430D4F8C460002E00F09080A3
:100798003946B06A01F0E2FD002880F28580336BAB
:1007A800EFE790F8B910022966D090F8AA30002B2C
:1007B80062D042EA4112013A282A5DD8DFE802F005
:1007C8001520232A31464D53575C5C5C5C5C5C5CAD
:1007D8005C5C5C5C5C5C5C5C5C5C5C5C5C5C5C5C51
:1007E800151B20232A31383C400000F1AA0148306B
:1007F800FFF7FBFE40E0A3F141004342434129E0FB
:1008080000F11C0108E0A3F153014B424B4180F871
:10081800243031E000F1280104F1AA00FFF786FE38
:100828002AE0A3F157025342534180F8303023E0C5
:1008380000F1AA0158301DE000F1AA01683019E062
:1008480000F1AA013830FFF7D7FE15E0302B94BF2E
:100858000023012384F8BC300EE000F1AA0188309F
:10086800FFF7EEFE08E000F1AA01983002E000F17F
:10087800AA017830FFF7D2FED4F8C46004F1AA07C1
:10088800B6B1D4F8C430B06A996A01F067FD78B996
:10089800F26A94F8BA309A420ADC03D139463046F3
:1008A800FFF7E4FE366BEBE702D00023C4F8C43050
:1008B8002846F8BD3C2508084225080838B5D0F870
:1008C800C830242903F1010304460D46C0F8C83096
:1008D8002AD090F8BB3004D80A290CD00D2932D17F
:1008E80009E02A2907D02C292DD190F8A82082F0D8
:1008F8002C0280F8A8200E2B4FF0000005D82344C6
:1009080083F8AA002046FFF7B5FE94F8BA30013301
:1009180084F8BA30002384F8BB30A5F12A035D427D
:100928005D4184F8A95038BD0020022384F8BB003B
:1009380084F8BA0084F8A80084F8B93084F8A900CB
:1009480084F8BC0038BD0D2B9FBF5A1C1B1984F8B6
:10095800BB2083F8AA5094F8A90028B994F8A810E5
:100968004D4084F8A85038BD002038BD00F040B88C
:1009780008B5024B1B681B68019308BDD401040825
:1009880008B5024B1B685B68019308BDD4010408D5
:1009980008B5024B1B681B69019308BDD401040804
:1009A80008B5024B1B689B69019308BDD401040874
:1009B80008B5024B1B681B6B019308BDD0010408E6
:1009C80008B5024B1B68DB6E019308BDB80104082B
:1009D80008B5024B1B685B68019308BD9C010408BD
:1009E80008B5024B1B685B69019308BD9C010408AC
:1009F80008B5024B1B681B68019308BDB0010408C9
:100A080008B5024B1B689B68019308BDB001040838
:100A180008B5024B1B68DB68019308BDB0010408E8
:100A280008B5024B1B681B69019308BDB001040897
:100A380008B5024B1B681B6A019308BDAC0104088A
:100A480008B5024B1B685B6A019308BDAC0104083A
:100A580008B5024B1B689B6A019308BDAC010408EA
:100A680008B5024B1B68DB6A019308BDAC0104089A
:100A780008B5024B1B681B6B019308BDAC01040849
:100A880008B5024B1B685B6B019308BDAC010408F9
:100A980008B5024B1B681B6C019308BDAC01040828
:100AA80008B5024B1B68DB69019308BDB401040853
:100AB80008B5024B1B681B6A019308BDB401040802
:100AC80008B5024B1B689B69019308BDC401040863
:100AD80008B5024B1B685B6A019308BDC401040892
:100AE80008B5024B1B689B6A019308BDC401040842
:100AF80008B5024B1B68DB6A019308BDC4010408F2
:100B080008B5024B1B681B6B019308BDC4010408A0
:100B180008B5024B1B685B6B019308BDC401040850
:100B280008B5024B1B689B6B019308BDC401040800
:100B380008B5024B1B681B6C019308BDC40104086F
:100B480008B5024B1B68DB6C019308BDC40104089F
:100B580008B5024B1B681B6D019308BDC40104084E
:100B680008B5024B1B681B68019308BD1C000608EA
:100B780008B5024B1B685B68019308BD1C0006089A
:100B880008B5024B1B681B69019308BD1C000608C9
:100B980008B5024B1B685B69019308BD1C00060879
:100BA80008B5024B1B689B69019308BD1C00060829
:100BB80008B5024B1B68DB69019308BD1C000608D9
:100BC80008B5024B1B681B6A019308BD1C00060888
:100BD80008B5024B1B685B68019308BDA4010408B3
:100BE80008B5024B1B68DB6A019308BDA401040821
:100BF80008B5034B1B68D3F89030019308BD00007B
:100C0800A401040808B5034B1B68D3F89C30019372
:100C180008BD0000A401040808B5024B1B68DB6B83
:100C2800019308BDCC01040808B5024B1B681B6979
:100C3800019308BDC801040808B5024B1B681B686E
:100C4800019308BDA001040808B5024B1B685B6846
:100C5800019308BDA001040808B5024B1B685B6A34
:100C6800019308BDA001040810B5044608461146C2
:100C780020701A460023FFF77BFE204610BD002394
:100C88000078FFF77DBE00220078FFF781BE13B51C
:100C9800002400780094FFF783FE02B010BD002204
:100CA80011461046FFF7C0BF38B50B4C28252A4619
:100CB8000021204601F021FB4FF0FF3363602580BF
:100CC800064C074B20462C2540F8043B2A460021B9
:100CD80001F013FBA58038BDE0070020B007002015
:100CE8007425080810B58368044613B10322014629
:100CF8009847204610BD7047F8B5064615460C467D
:100D08008F18BC4206D0336814F8011B9B68304624
:100D18009847F6E72846F8BD0022007CFFF788BE12
:100D28000021007CFFF78CBE0021007CFFF790BEFD
:100D38000021007CFFF794BE0021007CFFF798BEDD
:100D480010B50446FFF7A5F9204610BD10B50446B6
:100D580008464FF47A73A360044B00212074616045
:100D68002360FFF795FE204610BD00BF80250808C8
:100D78000021007CFFF784BE704710B50446FFF7DA
:100D880088F9204610BDF8B50F4600F10806051D84
:100D9800002416F8011D0A22384600F096F8AE42E3
:100DA800044407D0002CF4D02E21384600F04AF82D
:100DB8000444EEE72046F8BD10B59DF8084044EA23
:100DC800032343EA024242EA0161416010BD000088
:100DD80037B5044D05609DF818500095FFF7ECFFF6
:100DE80003B030BDA8250808014A024B1A607047B5
:100DF8006A26080808080020F8B506460D468F1828
:100E08000024BD420CD0336815F8011B9B6830469E
:100E18009847002801DB0444F3E7002C08BF044688
:100E28002046F8BD70B505460C46084649B101F0A4
:100E3800A7FA2B68024621462846BDE87040DB68C1
:100E4800184770BD03689B68184738B50D210546DB
:100E5800FFF7F8FF0A2104462846FFF7F3FF20446E
:100E680038BD38B50546FFF7DDFF04462846FFF7CD
:100E7800ECFF204438BD012A98BF0A2230B50B4642
:100E88008BB000218DF824100DF12304B3FBF2F58B
:100E980005FB1233DBB2092B94BF30333733DBB297
:100EA800214604F801392B46002DEFD1FFF7BAFF90
:100EB8000BB030BD10B422B90368C9B29B6810BC2E
:100EC8001847D2B210BCFFF7D6BFFFF7F3BF2DE922
:100ED800F04107460E4615462AB9BDE8F0410368B9
:100EE800C9B29B6818470A2A02D1002901DA04E02E
:100EF800D2B2BDE8F041FFF7BEBF2D21FFF7A2FF38
:100F08002A46044671423846FFF7B5FF2044BDE83B
:100F1800F08100002DE9F84319468046104617462F
:100F28001E469DF8205001F06DF908B1474912E0BE
:100F380026F000444FF0FF32454B3846214601F079
:100F480061F968B94FF0FF32414B3846214601F04C
:100F58003BF928B93F494046FFF764FFBDE8F883ED
:100F68004FF060423C4B3846314601F041F908B138
:100F78003A49F0E74FF06042394B3846314601F0C4
:100F880019F90028F4D1002200233846314601F02F
:100F980011F938B12D214046FFF754FF06F10046FC
:100FA800044600E004462F494FF0000900205FFA8C
:100FB80089F39D4206D900222B4B00F0B3FF09F1BB
:100FC8000109F4E73A46334600F0D0FC0F460646DE
:100FD80001F056F90A22014681464046FFF74BFFC9
:100FE80004447DB3484600F0FDFD02460B463046FA
:100FF800394600F0B9FC06460F4640461B49FFF744
:1010080011FF0444184B00223046394600F060FEB8
:101018000F46064601F00CF90A2201468146404671
:10102800FFF755FF0444484600F0ECFD02460B4626
:101038003046394600F098FC013D15F0FF0506469C
:101048000F46DFD12046BDE8F88300BF9326080885
:10105800FFFFEF7F9D260808FFFFEF41972608084E
:10106800FFFFEFC10000E03F000024409B26080876
:1010780037B59DF8181005460091FFF74BFF044659
:101088002846FFF7E2FE204403B030BD0CB42DE93A
:10109800F04387B000AF07F1380454F8049B0546C5
:1010A8000E4623464A461421381D3C60FFF7D4FDFE
:1010B800132805D8391D2846FFF7B4FE044613E067
:1010C80000F1080323F00703E846ADEB030D411CCC
:1010D80023464A4668463C60FFF7BEFD69462846F7
:1010E800FFF7A0FE0446C5461EB12846FFF7ADFE31
:1010F800044420461C37BD46BDE8F04302B07047A3
:1011080010B50446FFF7EEFD204610BD0348002346
:101118008360034A034900F0D5BA00BF0C080020D9
:101128007804002009110808704710B50446FEF736
:10113800B0FF204610BD000070B504460E46074BB0
:101148000025036040F80C5FFFF732FC304626713B
:10115800FFF7A6FCA560204670BD00BFAC260808B6
:101168000079FFF7A5BC00004FF69C7337B50D4C0E
:10117800002563804FF6FF732846A3802570FFF78C
:1011880027FD02A840F8045D2A462946FFF718FC07
:10119800019B1E2B04D10323237011236580A38098
:1011A80003B030BD1C080020024B1A68024B1A60BD
:1011B800704700BF080400202408002041747047CD
:1011C800007CFFF7B5BC007CFFF78ABC007CFFF70A
:1011D80097BC007CFFF78CBC007CFFF799BC70B50E
:1011E800457C04460E4625B9007CFFF7A1FC002883
:1011F80005DD3146207CBDE87040FFF769BC284614
:1012080070BD000010B50446084611460022626011
:101218004FF47A72A260054A207422600122627437
:101228001A46FFF74DFC204610BD00BFE826080807
:101238000023007CFFF784BC0022FFF7F9BF007C85
:10124800FFF786BC007CFFF76BBC000038B50C4D7F
:10125800296811F0010411D12846FEF71CFF68B176
:10126800084A2146084B0948FFF7CCFF2846FEF7F5
:1012780017FF074A0749054800F024FA034838BD14
:10128800C0080020C40800203C08002028080020CE
:1012980078040020AF0008084174704770470021A7
:1012A800007CFFF77DBC0121007CFFF779BC007C46
:1012B800FFF76EBC007CFFF763BC38B50446007CC2
:1012C8000D46FFF765FC002801DC607C20B129464B
:1012D800207CFFF76DFC012038BD007CFFF770BC57
:1012E80010B50446FEF7D5FE204610BD10B50446DD
:1012F800002363604FF47A73A360054B08462360AC
:101308000123217463741146FFF72AFC204610BD9F
:10131800182708080022007CFFF72ABC10B50446ED
:101328001422002100F0E9FF054B20466360054BBD
:10133800E36040F2011323818123238210BD00BFA3
:10134800CD0900204C09002030B50E4D87B001A80A
:10135800FFF7E4FF296811F0010410D12846FEF7D1
:101368009AFE60B101AA21460748FFF7BFFF284649
:10137800FEF796FE054A0649034800F0A3F902481D
:1013880007B030BD48090020D00A002078040020AA
:10139800A512080810B504461422002100F0ADFF7C
:1013A800054B20466360054BE36040F2011323813F
:1013B8008123238210BD00BF800B0020E80A002093
:1013C80010B50E4C86B001A8FFF7E4FF2368DB07D1
:1013D80010D42046FEF75FFE60B101AA012108483B
:1013E800FFF784FF2046FEF75BFE064A06490448DD
:1013F80000F068F9024806B010BD00BFE40A0020FA
:101408006C0B002078040020A512080808B5184BBA
:1014180033B1FFF799FF03681B69984700281EDC62
:10142800144B33B1FFF712FF03681B699847002874
:1014380018DC114B0BB1AFF30080104B0BB1FEF76A
:1014480061FE0F4B0BB1FEF797FE0E4B7BB1FFF71A
:10145800B7FF03681B699847002806DC08BDAFF38F
:101468000080DDE7AFF30080E3E7AFF3008008BD5D
:101478000000000000000000000000000D01080846
:10148800810108080000000008B5FFF7BFFFFFF75B
:10149800A7FA014B186008BD8C0C00200248034ACB
:1014A8000349121A00F01EBF0040024004400240E7
:1014B800E028080807B5002300931A466FF0770163
:1014C800FFF7A0FB03B05DF804FB000007B54388F5
:1014D8000A2B08D0502B09D1094B1B683BB103B02C
:1014E8005DF804EB1847FFF7E5FF06E000230093DB
:1014F8001A466FF07701FFF785FB03B05DF804FB30
:10150800840C002038B5104C104D2368AB42104BAA
:101518000CBF012200221A7002D0FFF7BFFF25601E
:10152800FFF756FA00F0F2FE0A4B1BB1FFF750FA2C
:10153800AFF3008000210748FFF76EFBBDE8384095
:1015480000210548FFF754BB004002401E1C279AA3
:10155800880C002000000000D514080810B50446C7
:101568000F48FFF7FDFD28B1A4F10D03022B01D8A8
:10157800002010BD00F040F8FFF7FAFB08B1012C7D
:10158800F6D9FFF763FEFFF75DFE18B1A4F1120369
:10159800012BEDD92E2C8CBF0020012010BD00BFDF
:1015A800B00C00202E2838B504460D460AD8FF296D
:1015B80008D0FFF7D3FF28B129462046BDE83840B8
:1015C800FFF71EBA38BD38B504460D46FFF720FAB6
:1015D800FF2810D0062804D84D2323FA00F0C307AB
:1015E80009D42046FFF7BAFF28B129462046BDE8AE
:1015F8003840FFF715BA38BD38B50B4D296811F0DA
:1016080001040FD12846FEF746FD58B12146074888
:10161800FFF79CFB2846FEF743FD054A05490348AA
:1016280000F050F8014838BD900C0020940C0020C0
:1016380078040020FF0C080813B5084C00231A464C
:10164800194600932046FFF7C3FB2046044A054984
:1016580002B0BDE8104000F035B800BFA80C00206B
:1016680078040020810D080870B5114E114D124CF8
:1016780000213046FFF760FD3046104E2A462146CD
:1016880000F020F801213046FFF756FD30460C4E99
:101698002A46214600F016F802213046FFF74CFD95
:1016A8002A4621463046BDE8704000F00BB800BF1E
:1016B800B00C00207804002031110808C00C00206C
:1016C800D00C00200B460146184600F0FDBD000076
:1016D800244B1A68D0075CBF01221A60224B1A6893
:1016E800D1075CBF01221A60204B1A68D2075CBF81
:1016F80001221A601E4B1A68D0075CBF01221A60CB
:101708001C4B1A68D1075CBF01221A601A4B1A6871
:10171800D2075CBF01221A60184B1A68D0075CBF59
:1017280001221A60164B1A68D1075CBF01221A60A1
:10173800144B1A68D2075CBF01221A60124B1A6850
:10174800D0075CBF01221A60104B1A68D1075CBF32
:1017580001221A600E4B1A68D2075CBF01221A6078
:10176800704700BF0C0D0020080D0020040D00205C
:10177800000D0020FC0C0020F80C0020F40C0020C8
:10178800F00C0020EC0C0020E80C0020E40C0020F9
:10179800E00C0020184B1A68D1075CBF01221A60C0
:1017A800164B1A68D2075CBF01221A60144B1A68DC
:1017B800D0075CBF01221A60124B1A68D1075CBFC0
:1017C80001221A60104B1A68D2075CBF01221A6006
:1017D8000E4B1A68D0075CBF01221A600C4B1A68BE
:1017E800D1075CBF01221A600A4B1A68D2075CBF96
:1017F80001221A60704700BF2C0D0020280D002020
:10180800240D0020200D00201C0D0020180D0020A4
:10181800140D0020100D0020184B1A68D1075CBF6A
:1018280001221A60164B1A68D2075CBF01221A609F
:10183800144B1A68D0075CBF01221A60124B1A6851
:10184800D1075CBF01221A60104B1A68D2075CBF2F
:1018580001221A600E4B1A68D0075CBF01221A6079
:101868000C4B1A68D1075CBF01221A600A4B1A6830
:10187800D2075CBF01221A60704700BF4C0D0020E0
:10188800480D0020440D0020400D00203C0D002094
:10189800380D0020340D0020300D0020244B1A682C
:1018A800D0075CBF01221A60224B1A68D1075CBFBF
:1018B80001221A60204B1A68D2075CBF01221A6005
:1018C8001E4B1A68D0075CBF01221A601C4B1A68AD
:1018D800D1075CBF01221A601A4B1A68D2075CBF95
:1018E80001221A60184B1A68D0075CBF01221A60DF
:1018F800164B1A68D1075CBF01221A60144B1A688C
:10190800D2075CBF01221A60124B1A68D0075CBF6D
:1019180001221A60104B1A68D1075CBF01221A60B5
:101928000E4B1A68D2075CBF01221A60704700BFCD
:101938007C0D0020780D0020740D0020700D002013
:101948006C0D0020680D0020640D0020600D002043
:101958005C0D0020580D0020540D0020500D002073
:1019680081F0004102E000BF83F0004330B54FEA48
:1019780041044FEA430594EA050F08BF90EA020FB5
:101988001FBF54EA000C55EA020C7FEA645C7FEA48
:10199800655C00F0E2804FEA5454D4EB5555B8BF6B
:1019A8006D420CDD2C4480EA020281EA030382EADC
:1019B800000083EA010180EA020281EA0303362D6E
:1019C80088BF30BD11F0004F4FEA01314FF4801C41
:1019D8004CEA113102D0404261EB410113F0004F53
:1019E8004FEA03334CEA133302D0524263EB43030A
:1019F80094EA050F00F0A780A4F10104D5F1200EA8
:101A08000DDB02FA0EFC22FA05F2801841F1000102
:101A180003FA0EF2801843FA05F359410EE0A5F1D6
:101A280020050EF1200E012A03FA0EFC28BF4CF007
:101A3800020C43FA05F3C01851EBE37101F00045BD
:101A480007D54FF0000EDCF1000C7EEB00006EEBCA
:101A58000101B1F5801F1BD3B1F5001F0CD3490854
:101A68005FEA30004FEA3C0C04F101044FEA4452AB
:101A780012F5800F80F09A80BCF1004F08BF5FEA32
:101A8800500C50F1000041EB045141EA050130BD12
:101A98005FEA4C0C404141EB010111F4801FA4F1B5
:101AA8000104E9D191F0000F04BF01460020B1FA0A
:101AB80081F308BF2033A3F10B03B3F120020CDA42
:101AC8000C3208DD02F1140CC2F10C0201FA0CF020
:101AD80021FA02F10CE002F11402D8BFC2F1200C85
:101AE80001FA02F120FA0CFCDCBF41EA0C0190403B
:101AF800E41AA2BF01EB0451294330BD6FEA040484
:101B08001F3C1CDA0C340EDC04F11404C4F120026E
:101B180020FA04F001FA02F340EA030021FA04F380
:101B280045EA030130BDC4F10C04C4F1200220FAD7
:101B380002F001FA04F340EA0300294630BD21FA15
:101B480004F0294630BD94F0000F83F4801306BFDB
:101B580081F480110134013D4EE77FEA645C18BFCF
:101B68007FEA655C29D094EA050F08BF90EA020F66
:101B780005D054EA000C04BF1946104630BD91EA5E
:101B8800030F1EBF0021002030BD5FEA545C05D161
:101B98004000494128BF41F0004130BD14F58004A0
:101BA8003CBF01F5801130BD01F0004545F0FE4114
:101BB80041F470014FF0000030BD7FEA645C1ABF49
:101BC800194610467FEA655C1CBF0B46024650EA80
:101BD800013406BF52EA033591EA030F41F40021AC
:101BE80030BD00BF90F0000F04BF0021704730B532
:101BF8004FF4806404F132044FF000054FF0000107
:101C080050E700BF90F0000F04BF0021704730B5C7
:101C18004FF4806404F1320410F0004548BF40429C
:101C28004FF000013EE700BF42004FEAE2014FEAF1
:101C380031014FEA02701FBF12F07F4393F07F4FCC
:101C480081F06051704792F0000F14BF93F07F4FFE
:101C5800704730B54FF4607401F0004521F0004141
:101C680020E700BF50EA010208BF704730B54FF0C7
:101C780000050AE050EA010208BF704730B511F0CC
:101C8800004502D5404261EB41014FF4806404F104
:101C980032045FEA915C3FF4DCAE4FF003025FEA86
:101CA800DC0C18BF03325FEADC0C18BF033202EB0E
:101CB800DC02C2F1200300FA03FC20FA02F001FA68
:101CC80003FE40EA0E0021FA02F11444C1E600BF07
:101CD80070B54FF0FF0C4CF4E06C1CEA11541DBFBA
:101CE8001CEA135594EA0C0F95EA0C0F00F0DEF885
:101CF8002C4481EA030621EA4C5123EA4C5350EA6A
:101D0800013518BF52EA033541F4801143F48013BA
:101D180038D0A0FB02CE4FF00005E1FB02E506F04B
:101D28000042E0FB03E54FF00006E1FB03569CF0A0
:101D3800000F18BF4EF0010EA4F1FF04B6F5007FA6
:101D480064F5407404D25FEA4E0E6D4146EB060618
:101D580042EAC62141EA55514FEAC52040EA5E50A1
:101D68004FEACE2EB4F1FD0C88BFBCF5E06F1ED84B
:101D7800BEF1004F08BF5FEA500E50F1000041EB82
:101D8800045170BD06F0004646EA010140EA02002F
:101D980081EA0301B4EB5C04C2BFD4EB0C0541EA51
:101DA800045170BD41F480114FF0000E013C00F366
:101DB800AB8014F1360FDEBF002001F0004170BD8A
:101DC800C4F10004203C35DA0C341BDC04F11404A3
:101DD800C4F1200500FA05F320FA04F001FA05F22F
:101DE80040EA020001F0004221F0004110EBD370FC
:101DF80021FA04F642EB06015EEA430E08BF20EA28
:101E0800D37070BDC4F10C04C4F1200500FA04F3CA
:101E180020FA05F001FA04F240EA020001F000415C
:101E280010EBD37041F100015EEA430E08BF20EACF
:101E3800D37070BDC4F1200500FA05F24EEA020E17
:101E480020FA04F301FA05F243EA020321FA04F046
:101E580001F0004121FA04F220EA020000EBD370FD
:101E68005EEA430E08BF20EAD37070BD94F0000FFD
:101E78000FD101F00046400041EB010111F4801F31
:101E880008BF013CF7D041EA060195F0000F18BFE2
:101E9800704703F00046520043EB030313F4801F1E
:101EA80008BF013DF7D043EA0603704794EA0C0FD8
:101EB8000CEA135518BF95EA0C0F0CD050EA4106EE
:101EC80018BF52EA4306D1D181EA030101F000416B
:101ED8004FF0000070BD50EA410606BF1046194693
:101EE80052EA430619D094EA0C0F02D150EA01369F
:101EF80013D195EA0C0F05D152EA03361CBF1046E0
:101F080019460AD181EA030101F0004141F0FE417E
:101F180041F470014FF0000070BD41F0FE4141F402
:101F2800780170BD70B54FF0FF0C4CF4E06C1CEA02
:101F380011541DBF1CEA135594EA0C0F95EA0C0FB7
:101F480000F0A7F8A4EB050481EA030E52EA033572
:101F58004FEA013100F088804FEA03334FF0805593
:101F680045EA131343EA12634FEA022245EA1115C0
:101F780045EA10654FEA00260EF000419D4208BF71
:101F8800964244F1FD0404F5407402D25B084FEA1E
:101F98003202B61A65EB03055B084FEA32024FF4CA
:101FA80080104FF4002CB6EB020E75EB030E22BF27
:101FB800B61A754640EA0C005B084FEA3202B6EBE7
:101FC800020E75EB030E22BFB61A754640EA5C0096
:101FD8005B084FEA3202B6EB020E75EB030E22BF26
:101FE800B61A754640EA9C005B084FEA3202B6EB27
:101FF800020E75EB030E22BFB61A754640EADC00E6
:1020080055EA060E18D04FEA051545EA16754FEA47
:1020180006164FEAC30343EA52734FEAC2025FEA65
:102028001C1CC0D111F4801F0BD141EA00014FF0F4
:1020380000004FF0004CB6E711F4801F04BF0143C5
:102048000020B4F1FD0C88BFBCF5E06F3FF6AFAEE1
:10205800B5EB030C04BFB6EB020C5FEA500C50F171
:10206800000041EB045170BD0EF0004E4EEA1131F4
:1020780014EB5C04C2BFD4EB0C0541EA045170BDFB
:1020880041F480114FF0000E013C90E645EA060E3F
:102098008DE60CEA135594EA0C0F08BF95EA0C0F6D
:1020A8003FF43BAF94EA0C0F0AD150EA01347FF4B5
:1020B80034AF95EA0C0F7FF425AF104619462CE78C
:1020C80095EA0C0F06D152EA03353FF4FDAE1046EF
:1020D800194622E750EA410618BF52EA43067FF440
:1020E800C5AE50EA41047FF40DAF52EA43057FF4D0
:1020F800EBAE12E74FF0FF3C06E000BF4FF0010CDB
:1021080002E000BF4FF0010C4DF804CD4FEA410C3E
:102118007FEA6C5C4FEA430C18BF7FEA6C5C1BD00B
:1021280001B050EA410C0CBF52EA430C91EA030F8C
:1021380002BF90EA020F0020704710F1000F91EAE9
:10214800030F58BF994208BF90422CBFD8176FEAB7
:10215800E37040F0010070474FEA410C7FEA6C5C85
:1021680002D150EA013C07D14FEA430C7FEA6C5C8C
:10217800D6D152EA033CD3D05DF8040B704700BFB8
:102188008446104662468C461946634600E000BF06
:1021980001B5FFF7B7FF002848BF10F1000F01BDD8
:1021A8004DF808EDFFF7F4FF0CBF012000205DF8A3
:1021B80008FB00BF4DF808EDFFF7EAFF34BF012028
:1021C80000205DF808FB00BF4DF808EDFFF7E0FFC1
:1021D80094BF012000205DF808FB00BF4DF808ED12
:1021E800FFF7CEFF94BF012000205DF808FB00BF79
:1021F8004DF808EDFFF7C4FF34BF012000205DF85B
:1022080008FB00BF4FEA410C7FEA6C5C02D150EA40
:10221800013C0AD14FEA430C7FEA6C5C02D152EAD6
:10222800033C02D14FF0000070474FF001007047A7
:102238004FEA410212F5001215D211D56FF47873E6
:10224800B3EB625212D94FEAC12343F0004343EA89
:10225800505311F0004F23FA02F018BF4042704764
:102268004FF00000704750EA013005D111F00040EE
:1022780008BF6FF0004070474FF00000704700BF84
:102288004A0011D212F5001211D20DD56FF47873ED
:10229800B3EB62520ED44FEAC12343F0004343EA42
:1022A800505323FA02F070474FF00000704750EA8D
:1022B800013002D14FF0FF3070474FF000007047F7
:1022C8000A22002100F0FEB810B5054C13462CB1C7
:1022D8000A4601460220AFF3008010BD204610BD1B
:1022E8000000000010B5431E0A44914204D011F8C2
:1022F800014B03F8014FF8E710BD0346024493422F
:1023080002D003F8011BFAE77047000038B5124BFA
:1023180005461C68A36BD3B91820FEF78DFC43F261
:102328000E33A06303804AF6CD33438041F2342351
:1023380083804EF26D63C3804DF6EC630381052301
:1023480043810B23838101220023C0E90423A36B6B
:1023580000221D615A6138BD7004002010F8012B5D
:1023680011F8013B012A28BF9A42F7D0D01A7047CA
:10237800034611F8012B03F8012B002AF9D1704705
:10238800034613F8012B002AFBD1181A01387047AD
:10239800034610B542B111F8014B013A03F8014B5D
:1023A800002CF7D11A4400E010BD934202D003F884
:1023B800014BFAE710BD00002DE9F0470F468046B3
:1023C8003F48D0F800903D4615F8014B09EB040052
:1023D800407800F0080000F0FF0608B12F46F2E749
:1023E8002D2C03D1BD1C7C78012603E02B2C04BFC7
:1023F8007C78BD1C13B1102B0AD15BE0302C57D16F
:10240800287800F0DF0058284DD16C781023023569
:10241800002E14BF4FF0004C6FF0004CBCFBF3FAD9
:102428000027384603FB1ACC09EB040E9EF801E09E
:102438001EF0040F01D0303C0BE01EF0030E1BD041
:10244800BEF1010F0CBF4FF0370E4FF0570ECEEB19
:102458000404A34210DDB7F1FF3F0AD0504506D867
:1024680001D1644503DC03FB0040012701E04FF084
:10247800FF3715F8014BD7E77B1C0CD1002E4FF026
:10248800220314BF4FF000406FF00040C8F800303E
:102498002AB9BDE8F08706B1404272B107B1691E9A
:1024A8001160BDE8F0873024002BB1D10823AFE7D5
:1024B8000A23ADE7302CA3D0AAE7BDE8F08700BF18
:1024C8000C04002013460A46014602480068FFF73C
:1024D80073BF00BF700400201D0008085D000808D5
:1024E800890008088D000808000000004C6F63612F
:1024F80074696F6E3A20002C00494E56414C49448D
:10250800002020446174652F54696D653A20002FBE
:1025180000737065656420696E76616C6964006E2D
:10252800302E76616C3D006E657874696F6E20732D
:10253800656E64004750524D43004750474741007D
:102548004E004E4E4500454E4500455345005353F9
:10255800450053005353570057535700574E5700E1
:102568004E4E57000000000000000000A70C0808AD
:102578000000000000000000FF0C0808490D0808D2
:10258800210D0808010D0808290D0808310D080853
:10259800390D0808410D080800000000000000007F
:1025A8008F0D0808810D0808830D08086C6E0066F9
:1025B8006E00636F64650064657461696C000D0A80
:1025C80000253031307520005D20002564002C2066
:1025D8000028293A2000205B00636F6465203D20B5
:1025E8000025690064657461696C73203D20006290
:1025F8006175640053657269616C00555342536597
:102608007269616C31007479706500706172616D16
:1026180000636D6400686E64007374726D006669AF
:102628006C74006C766C0061646448616E646C65FF
:10263800720072656D6F766548616E646C657200D4
:10264800656E756D48616E646C657273004A534FB0
:102658004E53747265616D4C6F6748616E646C654A
:102668007200617070006E6F6E65007472616365F0
:1026780000696E666F007761726E006572726F72C4
:102688000070616E696300616C6C006E616E006F52
:102698007666002E00696E660000000000000000EB
:1026A8000000000031110808331108085A00252BD2
:1026B8003033643A253032750025592D256D2D2586
:1026C800645425483A254D3A2553257A00617363A9
:1026D80074696D6500000000000000000000000043
:1026E800AF000808B3000808E7110808010E080839
:1026F800CF110808DB110808D5110808E1110808EE
:10270800C5110808C91108080000000000000000F1
:10271800A5120808E9120808C3120808010E0808DB
:10272800BD120808A7120808AF120808E312080823
:10273800B7120808A1120808002020202020202015
:102748002020282828282820202020202020202059
:102758002020202020202020208810101010101069
:1027680010101010101010101004040404040404B5
:10277800040404101010101010104141414141414F
:102788000101010101010101010101010101010131
:102798000101010110101010101042424242424241
:1027A8000202020202020202020202020202020201
:1027B80002020202101010102000000000000000A9
:1027C8000000000000000000000000000000000001
:1027D80000000000000000000000000000000000F1
:1027E80000000000000000000000000000000000E1
:1027F80000000000000000000000000000000000D1
:1028080000000000000000000000000000000000C0
:1028180000000000000000000000000000000000B0
:1028280000000000000000000000000000000000A0
:102838000000000000000000000000000000000090
:102848000000000000000000000000000000000080
:102858000000000000000000000000000000000070
:102868000000000000000000000000000000000060
:102878000000000000000000000000000000000050
:102888000000000000000000000000000000000040
:10289800000000000000000000000000E503080838
:1028A80075090808B10C0808F10D08081511080881
:1028B80071110808B11108084116080871160808AE
:1028C800D91608089D17080821180808A518080827
:0828D8000000000000000000F8
:0428E00000000000F4
:1028E4000700000045000000D52608084027080816
:1028F4000000000044280808642808088428080800
:1029040000000000000000000000000000000000C3
:10291400402508080000000000000000000000003E
:1029240000000000000000000000000000000000A3
:102934000000000000000000000000000000000093
:102944000000000000000000000000000000000083
:04295400100400204B
:10295800FFFFFFFF00000102030405060708090A3C
:102968000B0C0D0E0F101112131415161718191A37
:082978001B1C1D1E1F2028007E
:04298000785634123F
:0400000508080018CF
:00000001FF
