:020000040808EA
:10000000000008083C2C0808000005000A00050153
:080010000402EA0300000000F5
:10001800A827080809480A4908B5884205D0094AA6
:10002800824202D0121A02F0C1FA0748074A002198
:10003800121A02F0C6FA064808BD00BF00040020E4
:10004800A42B08087004002070040020780D0020FC
:10005800780D002070B501F0B9FB074B074C1E4620
:10006800E41AA4080025A54204D056F8253098477C
:100078000135F8E770BD00BF642B0808982B080805
:1000880000F08EB808B500F007FABDE8084001F0A6
:100098005FBB00F045BF0078B0FA80F040097047B8
:1000A8000123037070477047704710B50446FFF787
:1000B800F0FF204610BD000010B50C4C2368DB078C
:1000C80011D42046FFF7E7FF68B1094A0321094B1D
:1000D800094801F0FBF92046FFF7E2FF074A084903
:1000E800054801F053FC044810BD00BF94070020E8
:1000F800FA04002076040020800700207004002005
:10010800AF00080810B5FFF7D7FF074B044653B1F7
:1001180001F0FCF938B1236820461B69984700288C
:1001280001DDAFF3008010BD0000000010B50C4CDD
:100138002368DB0711D42046FFF7ADFF68B1094AF1
:100148000421094B094801F0C1F92046FFF7A8FF2F
:10015800074A0849054801F019FC044810BD00BFCA
:10016800040600207E0500200806002090060020D6
:1001780070040020AF00080810B5FFF7D7FF074B41
:10018800044653B101F0C2F938B1236820461B690F
:100198009847002801DDAFF3008010BD0000000083
:1001A80010B5184C00222046174900F0D7FE40F23F
:1001B800FF7200234FF48071204600F0D7FE01F053
:1001C80027FA4FF4165101F009FAFFF775FF4FF4BB
:1001D800165101F095F9FFF7A9FF4FF4165101F0F8
:1001E8008FF90A4B0121188801F040FB084B0121C7
:1001F800188801F03BFB01F00BFABDE810400549F7
:1002080000F090BF0206002048E80100980700208F
:1002180000040020BC27080873B56F4C01F0F8F9FA
:100228006E4900F07FFF2378F3B101F0F1F906463B
:10023800204600F099FA062502460B4600953046FE
:1002480001F082F801F0E4F9654900F06BFF01F074
:10025800DFF90646204600F0A7FA009502460B464D
:10026800304601F071F804E001F0D2F95D4900F080
:1002780059FF01F0CDF95C4900F054FF94F838308B
:100288005BB301F0C5F90546584800F0DDFA0A22CB
:100298000146284600F083FF01F0BAF9544900F0FE
:1002A80041FF01F0B5F90546504800F0D9FA0A2295
:1002B8000146284600F073FF01F0AAF94C4900F006
:1002C80031FF01F0A5F90546484800F0B1FA0A22C5
:1002D8000146284600F087FF04E001F099F94149FA
:1002E80000F020FF01F094F9424900F01BFF94F858
:1002F8004830002B63D0404800F0BCFA092804D8E5
:1003080001F086F93D4900F00DFF01F081F904463E
:10031800394800F0AFFA0A220146204600F03FFFB4
:1003280001F076F9364900F0FDFE334800F0ACFAEA
:10033800092804D801F06CF9304900F0F3FE01F007
:1003480067F904462C4800F09FFA0A220146204625
:1003580000F025FF01F05CF9294900F0E3FE26488A
:1003680000F0A0FA092804D801F052F9234900F056
:10037800D9FE01F04DF904461F4800F093FA0A220D
:100388000146204600F00BFF01F042F91D4900F03C
:10039800C9FE194800F092FA092804D801F038F982
:1003A800164900F0BFFE01F033F90446124800F088
:1003B80085FA0A220146204600F0F1FE04E001F029
:1003C80027F9084900F0AEFE01F022F902B0BDE8B5
:1003D800704000F0AEBE00BFA4060020C427080885
:1003E800CF270808D1270808D9270808DC060020E5
:1003F800E727080897280808EC060020E9270808D6
:10040800EB270808ED27080830B5002385B010222F
:100418001C4C00938DF804208DF805308DF80630BB
:100428008DF8073002930393174D6946174800F07B
:1004380099FD28B3009BB3F5807F07D19DF808107C
:100448002088B1FA81F1490901F021FA009BB3F53E
:10045800007F07D19DF808102888B1FA81F1490971
:1004680001F015FA009BB3F5407FDED19DF8081026
:10047800074BB1FA81F11878490901F008FAD3E776
:1004880005B030BD8C060020740400200206002050
:100498007C0700200000000073B5FFF7B5FFFFF7E9
:1004A80045FE03681B69984700280DDDFFF73EFEEF
:1004B80003685B699847C1B22B4800F063FB0028CA
:1004C800EDD0FFF7A9FEEAE74FF4FA7000F038FD27
:1004D800254B002483F85940186E01F0F7FC20A33F
:1004E800D3E9002301F058FD0022204B01F07EFEE5
:1004F8001F4D0226C5E9000101F08AF8D5E900235D
:10050800009600F021FF1B4B2146188801F0BFF927
:10051800194B2146188801F0BAF9FFF7CDFD21469D
:10052800164A00F016FFFFF7C7FDD5E9002300962D
:1005380000F00AFFFFF7C0FDFF2100F0E4FFFFF71E
:10054800BBFDFF2100F0DFFFFFF7B6FDFF2100F044
:10055800DAFF4FF4FA7002B0BDE8704000F0F0BC6A
:100568006F1283C0CAA1FD3FA406002000005940B5
:10057800A00700209807002000040020EF270808A3
:1005880010B500F099FB0021012000F095FC084C03
:10059800084800F015F820231A460021204600F0EC
:1005A800D2FC2046BDE81040034A044901F0EEB9E8
:1005B80002060020A406002070040020B1000808EC
:1005C80000220221027042708280826002730282DD
:1005D800426102768283026280F824200285C26228
:1005E80080F8302080F8382080F83920C26380F8FD
:1005F800482080F84920C26480F8582080F85920A3
:10060800026680F8682080F86920026780F8782000
:1006180080F87920C0F8802080F8882080F8892028
:10062800C0F8902080F8982080F89920C0F8A02081
:1006380080F8A82080F8A92080F8B91080F8BA209E
:1006480080F8BB2080F8BC20C0F8C020C0F8C420C7
:10065800C0F8C820C0F8CC20C0F8D020C0F8D420FA
:1006680080F8AA207047A1F14103052B02D8A1F117
:1006780037007047A1F16103052B94BFA1F1570022
:10068800A1F13000704738B5044605782D2D08BF14
:100698000134204601F078FF64235843224614F8B9
:1006A800013BA3F130010929F8D92E2B0BD153783E
:1006B800303B092B07D80A2101FB03009378303B14
:1006C800092B98BFC0182D2D08BF404238BD000027
:1006D80038B504460D4601F057FF6423B0FBF3F22A
:1006E80003FB1200114B2A8043432046027804463C
:1006F800A2F13001092900F10100F7D92E2A0BD106
:100708000A490A2014F8012F303A092A04D8B1FB03
:10071800F0F101FB0233F5E703EB83030133032216
:10072800B3FBF2F36B6000232B7238BD8096980000
:10073800034610B553F81C2F044642605A6882607D
:100748001B7A0373034653F8282F02615A684261E3
:100758001B7A037600F0A8FA0123606363702370A4
:1007680010BD000000000000D0B50023044643700F
:10077800806801F09BFB0AA3D3E9002301F036FD52
:100788000646A0880F4601F0A1FB0B4602463946F3
:10079800304601F04FFA237B0BB101F10041D0BD87
:1007A8000000000065CDCD41D0B50023044643705C
:1007B800406901F07BFB0AA3D3E9002301F016FD91
:1007C8000646208A0F4601F081FB0B460246394651
:1007D800304601F02FFA237E0BB101F10041D0BD64
:1007E8000000000065CDCD4110B583680446436024
:1007F80000F05AFA0123E0606370237010BD10B551
:1008080083680446436000F04FFA0123E060637098
:10081800237010BD10B504460846FFF734FFA060EA
:1008280010BD10B50446084601F0AEFEA06010BD2C
:100838000023437040686422B0FBF2F302FB13000C
:1008480000F5FA6080B27047002343704368642063
:10085800B3FBF0F3B3FBF0F200FB1230C0B2704709
:1008680000234370436842F21070B3FBF0F0C0B24B
:10087800704700000023437043680248B3FBF0F060
:10088800C0B2704740420F0000234370436842F2F1
:100898001070B3FBF0F36420B3FBF0F200FB1230EE
:1008A800C0B270470023437043686420B3FBF0F381
:1008B800B3FBF0F200FB1230C0B270470023437064
:1008C80040686422B0FBF2F302FB1300C0B2704729
:1008D80010B5C3680446836000F0E6F90123606040
:1008E8006370237010BD10B504460846FFF7CBFEB1
:1008F800E06010BD10B5C3680446836000F0D4F909
:10090800012360606370237010BD10B5044608466B
:1009180001F03AFEE06010BD10B501460446103003
:1009280001F08AFE00F0C0F90123206284F8253026
:1009380084F8243010BD102201F08EBEF8B590F86E
:10094800A9500446002D67D090F8AA10FFF78BFE37
:1009580094F8AB1002462046FFF785FE94F8A830BD
:1009680000EB0210C0B283424FD1D4F8D430013327
:10097800C4F8D43094F8BC3023B1D4F8CC30013367
:10098800C4F8CC3094F8B930B3B1012B2AD104F1B2
:100998003800FFF729FF04F14800FFF730FF94F80B
:1009A800BC30FBB12046FFF7C3FE04F15800FFF747
:1009B8008FFF04F1680013E004F14800FFF71FFF00
:1009C80094F8BC3033B12046FFF7B2FE04F178004A
:1009D800FFF77EFF04F18800FFF78CFF04F1980011
:1009E800FFF776FFD4F8C460002E00F0C580D4F875
:1009F800C430B06A996A01F015FE002840F0BC8046
:100A08003046FFF789FF366BEEE7D4F8D030002583
:100A18000133C4F8D030AFE090F8BA202ABB00F117
:100A2800AA075649384601F0FDFD08B9012308E038
:100A38005349384601F0F6FD10B984F8B95002E080
:100A4800022384F8B930D4F8C030C4F8C430D4F8DC
:100A5800C460002E00F090803946B06A01F0E2FDD3
:100A6800002880F28580336BEFE790F8B9100229EF
:100A780066D090F8AA30002B62D042EA4112013ABF
:100A8800282A5DD8DFE802F01520232A31464D5385
:100A9800575C5C5C5C5C5C5C5C5C5C5C5C5C5C5C93
:100AA8005C5C5C5C5C5C5C5C151B20232A31383C1C
:100AB800400000F1AA014830FFF7ACFE40E0A3F186
:100AC80041004342434129E000F11C0108E0A3F141
:100AD80053014B424B4180F8243031E000F12801AA
:100AE80004F1AA00FFF7F4FD2AE0A3F157025342EC
:100AF800534180F8303023E000F1AA0158301DE05E
:100B080000F1AA01683019E000F1AA013830FFF7B6
:100B180088FE15E0302B94BF0023012384F8BC30F5
:100B28000EE000F1AA018830FFF7EFFE08E000F1BF
:100B3800AA01983002E000F1AA017830FFF7D3FE4D
:100B4800D4F8C46004F1AA07B6B1D4F8C430B06AC6
:100B5800996A01F067FD78B9F26A94F8BA309A4256
:100B68000ADC03D139463046FFF7E5FE366BEBE782
:100B780002D00023C4F8C4302846F8BDF927080875
:100B8800FF27080838B5D0F8C830242903F1010335
:100B980004460D46C0F8C8302AD090F8BB3004D8B7
:100BA8000A290CD00D2932D109E02A2907D02C298D
:100BB8002DD190F8A82082F02C0280F8A8200E2BC6
:100BC8004FF0000005D8234483F8AA002046FFF719
:100BD800B5FE94F8BA30013384F8BA30002384F8AB
:100BE800BB30A5F12A035D425D4184F8A95038BDA8
:100BF8000020022384F8BB0084F8BA0084F8A80017
:100C080084F8B93084F8A90084F8BC0038BD0D2BED
:100C18009FBF5A1C1B1984F8BB2083F8AA5094F86C
:100C2800A90028B994F8A8104D4084F8A85038BDF8
:100C3800002038BD00F040B808B5024B1B681B689F
:100C4800019308BDD401040808B5024B1B685B6812
:100C5800019308BDD401040808B5024B1B681B6941
:100C6800019308BDD401040808B5024B1B689B69B1
:100C7800019308BDD401040808B5024B1B681B6B1F
:100C8800019308BDD001040808B5024B1B68DB6E50
:100C9800019308BDB801040808B5024B1B685B68DE
:100CA800019308BD9C01040808B5024B1B685B69E9
:100CB800019308BD9C01040808B5024B1B681B681A
:100CC800019308BDB001040808B5024B1B689B6876
:100CD800019308BDB001040808B5024B1B68DB6826
:100CE800019308BDB001040808B5024B1B681B69D5
:100CF800019308BDB001040808B5024B1B681B6AC4
:100D0800019308BDAC01040808B5024B1B685B6A77
:100D1800019308BDAC01040808B5024B1B689B6A27
:100D2800019308BDAC01040808B5024B1B68DB6AD7
:100D3800019308BDAC01040808B5024B1B681B6B86
:100D4800019308BDAC01040808B5024B1B685B6B36
:100D5800019308BDAC01040808B5024B1B681B6C65
:100D6800019308BDAC01040808B5024B1B68DB6998
:100D7800019308BDB401040808B5024B1B681B6A3F
:100D8800019308BDB401040808B5024B1B689B69B0
:100D9800019308BDC401040808B5024B1B685B6ACF
:100DA800019308BDC401040808B5024B1B689B6A7F
:100DB800019308BDC401040808B5024B1B68DB6A2F
:100DC800019308BDC401040808B5024B1B681B6BDE
:100DD800019308BDC401040808B5024B1B685B6B8E
:100DE800019308BDC401040808B5024B1B689B6B3E
:100DF800019308BDC401040808B5024B1B681B6CAD
:100E0800019308BDC401040808B5024B1B68DB6CDC
:100E1800019308BDC401040808B5024B1B681B6D8B
:100E2800019308BDC401040808B5024B1B681B6880
:100E3800019308BD1C00060808B5024B1B685B68D7
:100E4800019308BD1C00060808B5024B1B681B6906
:100E5800019308BD1C00060808B5024B1B685B69B6
:100E6800019308BD1C00060808B5024B1B689B6966
:100E7800019308BD1C00060808B5024B1B68DB6916
:100E8800019308BD1C00060808B5024B1B681B6AC5
:100E9800019308BD1C00060808B5024B1B685B6877
:100EA800019308BDA401040808B5024B1B685B69DF
:100EB800019308BDA401040808B5024B1B68DB6A4E
:100EC800019308BDA401040808B5034B1B68D3F8B7
:100ED8009030019308BD0000A401040808B5034B35
:100EE8001B68D3F89C30019308BD0000A4010408D6
:100EF80008B5024B1B68DB6B019308BDCC010408E5
:100F080008B5024B1B681B69019308BDC80104089A
:100F180008B5024B1B681B68019308BDA0010408B3
:100F280008B5024B1B685B68019308BDA001040863
:100F380008B5024B1B685B6A019308BDA001040851
:100F48000021FFF7B1BF10B50446084611462070CE
:100F58001A460023FFF770FE204610BD00230078D4
:100F6800FFF772BE00220078FFF776BE13B50024A3
:100F780000780094FFF778FE02B010BD00221146F9
:100F88001046FFF7BDBF000038B50B4C28252A4690
:100F98000021204601F015FB4FF0FF3363602580E8
:100FA800064C074B20462C2540F8043B2A460021D6
:100FB80001F007FBA58038BDD8070020A80700204E
:100FC8003428080810B58368044613B10322014683
:100FD8009847204610BD7047F8B5064615460C469A
:100FE8008F18BC4206D0336814F8011B9B68304642
:100FF8009847F6E72846F8BD0022007CFFF77CBE3C
:101008000021007CFFF780BE0021007CFFF784BE32
:101018000021007CFFF788BE0021007CFFF78CBE12
:1010280010B50446FFF735F8204610BD10B5044644
:1010380008464FF47A73A360044B00212074616062
:101048002360FFF789FE204610BD00BF402808082E
:101058000021007CFFF778BE704710B50446FFF703
:1010680018F8204610BDF8B50F4600F10806051D12
:10107800002416F8011D0A22384600F090F8AE4206
:10108800044407D0002CF4D02E21384600F04EF846
:101098000444EEE72046F8BD10B59DF8084044EA40
:1010A800032343EA024242EA0161416010BD0000A5
:1010B80037B5044D05609DF818500095FFF7ECFF13
:1010C80003B030BD68280808014A024B1A6070470F
:1010D8002D29080800080020F8B506460D468F1887
:1010E8000024BD420CD0336815F8011B9B683046BC
:1010F8009847002801DB0444F3E7002C08BF0446A6
:101108002046F8BD70B505460C46084649B101F0C1
:101118009BFA2B68024621462846BDE87040DB68EA
:10112800184770BD08B5FFF7EDFF08BD03689B6859
:10113800184738B50D210546FFF7F8FF0A21044680
:101148002846FFF7F3FF204438BD012A98BF0A223A
:1011580030B50B468BB000218DF824100DF1230417
:10116800B3FBF2F505FB1233DBB2092B94BF303326
:101178003733DBB2214604F801392B46002DEFD175
:10118800FFF7C0FF0BB030BD10B422B90368C9B275
:101198009B6810BC1847D2B210BCFFF7D6BFFFF748
:1011A800F3BF2DE9F04107460E4615462AB9BDE8BA
:1011B800F0410368C9B29B6818470A2A02D100297E
:1011C80001DA04E0D2B2BDE8F041FFF7BEBF2D213D
:1011D800FFF7ACFF2A46044671423846FFF7B5FFD1
:1011E8002044BDE8F081FFF7DCBF00002DE9F8439B
:1011F80019468046104617461E469DF8205001F0B5
:1012080065F908B1474912E026F000444FF0FF3273
:10121800454B3846214601F059F968B94FF0FF327D
:10122800414B3846214601F033F928B93F49404639
:10123800FFF768FFBDE8F8834FF060423C4B384643
:10124800314601F039F908B13A49F0E74FF0604208
:10125800394B3846314601F011F90028F4D1002203
:1012680000233846314601F009F938B12D214046AE
:10127800FFF75CFF06F10046044600E004462F49EC
:101288004FF0000900205FFA89F39D4206D9002239
:101298002B4B00F0ABFF09F10109F4E73A4633465E
:1012A80000F0C8FC0F46064601F04EF90A22014636
:1012B80081464046FFF749FF04447DB3484600F0A5
:1012C800F5FD02460B463046394600F0B1FC0646AD
:1012D8000F4640461B49FFF715FF0444184B0022F0
:1012E8003046394600F058FE0F46064601F004F92C
:1012F8000A22014681464046FFF753FF0444484608
:1013080000F0E4FD02460B463046394600F090FCFA
:10131800013D15F0FF0506460F46DFD12046BDE822
:10132800F88300BF56290808FFFFEF7F5E290808E9
:10133800FFFFEF415A290808FFFFEFC10000E03F17
:1013480000002440ED2708089DF800100091FFF7E1
:101358004DBF0CB42DE9F04387B000AF07F1380456
:1013680054F8049B05460E4623464A461421381D68
:101378003C60FFF7DDFD132805D8391D2846FFF727
:10138800C1FE044613E000F1080323F00703E84612
:10139800ADEB030D411C23464A4668463C60FFF707
:1013A800C7FD69462846FFF7ADFE0446C5461EB18F
:1013B8002846FFF7BEFE044420461C37BD46BDE85C
:1013C800F04302B0704710B50446FFF7FBFD204616
:1013D80010BD0000034800238360034A034900F05E
:1013E800D5BA00BF0408002070040020CF130808F5
:1013F800704710B50446FEF74CFE204610BD0000AD
:1014080070B504460E46074B0025036040F80C5F94
:10141800FFF732FC30462671FFF7A6FCA560204690
:1014280070BD00BF6C2908080079FFF7A5BC000053
:101438004FF69C7337B50D4C002563804FF6FF734C
:101448002846A3802570FFF727FD02A840F8045D11
:101458002A462946FFF718FC019B1E2B04D10323BB
:10146800237011236580A38003B030BD14080020C9
:10147800024B1A68024B1A60704700BF0404002030
:101488001C08002041747047007CFFF7B5BC007C45
:10149800FFF78ABC007CFFF797BC007CFFF78CBC89
:1014A800007CFFF799BC70B5457C04460E4625B90B
:1014B800007CFFF7A1FC002805DD3146207CBDE853
:1014C8007040FFF769BC284670BD000010B504469F
:1014D80008461146002262604FF47A72A260054AFB
:1014E80020742260012262741A46FFF74DFC2046E0
:1014F80010BD00BFA82908080023007CFFF784BCA2
:101508000022FFF7F9BF007CFFF786BC007CFFF7DD
:101518006BBC000038B50C4D296811F0010411D1DD
:101528002846FEF7B8FD68B1084A2146084B094825
:10153800FFF7CCFF2846FEF7B3FD074A07490548E1
:1015480000F024FA034838BDB8080020BC08002081
:10155800340800202008002070040020AF0008088C
:101568004174704770470021007CFFF77DBC012162
:10157800007CFFF779BC007CFFF76EBC007CFFF7AE
:1015880063BC38B50446007C0D46FFF765FC0028AF
:1015980001DC607C20B12946207CFFF76DFC01202E
:1015A80038BD007CFFF770BC10B50446FEF771FD2E
:1015B800204610BD10B50446002363604FF47A73CB
:1015C800A360054B08462360012321746374114608
:1015D800FFF72AFC204610BDD82908080022007C05
:1015E800FFF72ABC10B504461422002100F0E9FFD9
:1015F800054B20466360054BE36040F201132381ED
:101608008123238210BD00BFC509002044090020A2
:1016180030B50E4D87B001A8FFF7E4FF296811F037
:10162800010410D12846FEF736FD60B101AA214613
:101638000748FFF7BFFF2846FEF732FD054A06496F
:10164800034800F0A3F9024807B030BD4009002064
:10165800C80A0020700400206D15080810B504465B
:101668001422002100F0ADFF054B20466360054BB6
:10167800E36040F2011323818123238210BD00BF60
:10168800780B0020E00A002010B50E4C86B001A8A7
:10169800FFF7E4FF2368DB0710D42046FEF7FBFCC6
:1016A80060B101AA01210848FFF784FF2046FEF730
:1016B800F7FC064A0649044800F068F9024806B0F3
:1016C80010BD00BFDC0A0020640B0020700400205D
:1016D8006D15080808B5184B33B1FFF799FF036873
:1016E8001B69984700281EDC144B33B1FFF712FF23
:1016F80003681B699847002818DC114B0BB1AFF33E
:101708000080104B0BB1FEF7FDFC0F4B0BB1FEF741
:1017180033FD0E4B7BB1FFF7B7FF03681B69984792
:10172800002806DC08BDAFF30080DDE7AFF30080DA
:10173800E3E7AFF3008008BD0000000000000000F0
:10174800000000000D0108088101080800000000E1
:1017580008B5FFF7BFFFFFF7A7FA014B186008BDF0
:10176800840C00200248034A0349121A00F01EBFE5
:101778000040024004400240A02B080807B500239F
:1017880000931A466FF07701FFF7A8FB03B05DF8E6
:1017980004FB000007B543880A2B08D0502B09D159
:1017A800094B1B683BB103B05DF804EB1847FFF722
:1017B800E5FF06E0002300931A466FF07701FFF774
:1017C8008DFB03B05DF804FB7C0C002038B5104C91
:1017D800104D2368AB42104B0CBF012200221A7037
:1017E80002D0FFF7BFFF2560FFF756FA00F0F2FEC0
:1017F8000A4B1BB1FFF750FAAFF3008000210748EE
:10180800FFF776FBBDE8384000210548FFF75CBBD1
:10181800004002401E1C279A800C00200000000097
:101828009D17080810B504460F48FFF7FDFD28B1BD
:10183800A4F10D03022B01D8002010BD00F040F8E0
:10184800FFF706FC08B1012CF6D9FFF763FEFFF796
:101858005DFE18B1A4F11203012BEDD92E2C8CBF1B
:101868000020012010BD00BFA80C00202E2838B58C
:1018780004460D460AD8FF2908D0FFF7D3FF28B140
:1018880029462046BDE83840FFF71EBA38BD38B5AE
:1018980004460D46FFF720FAFF2810D0062804D882
:1018A8004D2323FA00F0C30709D42046FFF7BAFFF7
:1018B80028B129462046BDE83840FFF715BA38BD9B
:1018C80038B50B4D296811F001040FD12846FEF7F1
:1018D800E2FB58B121460748FFF7A8FB2846FEF768
:1018E800DFFB054A0549034800F050F8014838BDB8
:1018F800880C00208C0C002070040020DF0F0808E2
:1019080013B5084C00231A46194600932046FFF7E2
:10191800CFFB2046044A054902B0BDE8104000F05C
:1019280035B800BFA00C0020700400206110080822
:1019380070B5114E114D124C00213046FFF760FD75
:101948003046104E2A46214600F020F80121304644
:10195800FFF756FD30460C4E2A46214600F016F891
:1019680002213046FFF74CFD2A4621463046BDE8A5
:10197800704000F00BB800BFA80C002070040020D5
:10198800F9130808B80C0020C80C00200B460146C3
:10199800184600F0FDBD0000244B1A68D0075CBF54
:1019A80001221A60224B1A68D1075CBF01221A6013
:1019B800204B1A68D2075CBF01221A601E4B1A68B6
:1019C800D0075CBF01221A601C4B1A68D1075CBFA4
:1019D80001221A601A4B1A68D2075CBF01221A60EA
:1019E800184B1A68D0075CBF01221A60164B1A6898
:1019F800D1075CBF01221A60144B1A68D2075CBF7A
:101A080001221A60124B1A68D0075CBF01221A60C3
:101A1800104B1A68D1075CBF01221A600E4B1A6876
:101A2800D2075CBF01221A60704700BF040D002076
:101A3800000D0020FC0C0020F80C0020F40C002005
:101A4800F00C0020EC0C0020E80C0020E40C002036
:101A5800E00C0020DC0C0020D80C0020184B1A6881
:101A6800D1075CBF01221A60164B1A68D2075CBF07
:101A780001221A60144B1A68D0075CBF01221A6051
:101A8800124B1A68D1075CBF01221A60104B1A6802
:101A9800D2075CBF01221A600E4B1A68D0075CBFE0
:101AA80001221A600C4B1A68D1075CBF01221A6028
:101AB8000A4B1A68D2075CBF01221A60704700BF40
:101AC800240D0020200D00201C0D0020180D0020E2
:101AD800140D0020100D00200C0D0020080D002012
:101AE800184B1A68D1075CBF01221A60164B1A6896
:101AF800D2075CBF01221A60144B1A68D0075CBF7A
:101B080001221A60124B1A68D1075CBF01221A60C1
:101B1800104B1A68D2075CBF01221A600E4B1A6874
:101B2800D0075CBF01221A600C4B1A68D1075CBF52
:101B380001221A600A4B1A68D2075CBF01221A6098
:101B4800704700BF440D0020400D00203C0D0020D0
:101B5800380D0020340D0020300D00202C0D002001
:101B6800280D0020244B1A68D0075CBF01221A6098
:101B7800224B1A68D1075CBF01221A60204B1A68F1
:101B8800D2075CBF01221A601E4B1A68D0075CBFDF
:101B980001221A601C4B1A68D1075CBF01221A6027
:101BA8001A4B1A68D2075CBF01221A60184B1A68D0
:101BB800D0075CBF01221A60164B1A68D1075CBFB8
:101BC80001221A60144B1A68D2075CBF01221A60FE
:101BD800124B1A68D0075CBF01221A60104B1A68B2
:101BE800D1075CBF01221A600E4B1A68D2075CBF8E
:101BF80001221A60704700BF740D0020700D00208C
:101C08006C0D0020680D0020640D0020600D002080
:101C18005C0D0020580D0020540D0020500D0020B0
:101C28004C0D0020480D002081F0004102E000BF6B
:101C380083F0004330B54FEA41044FEA430594EA84
:101C4800050F08BF90EA020F1FBF54EA000C55EABF
:101C5800020C7FEA645C7FEA655C00F0E2804FEA90
:101C68005454D4EB5555B8BF6D420CDD2C4480EA72
:101C7800020281EA030382EA000083EA010180EAA2
:101C8800020281EA0303362D88BF30BD11F0004FF0
:101C98004FEA01314FF4801C4CEA113102D0404226
:101CA80061EB410113F0004F4FEA03334CEA133361
:101CB80002D0524263EB430394EA050F00F0A78079
:101CC800A4F10104D5F1200E0DDB02FA0EFC22FA74
:101CD80005F2801841F1000103FA0EF2801843FA68
:101CE80005F359410EE0A5F120050EF1200E012A59
:101CF80003FA0EFC28BF4CF0020C43FA05F3C01897
:101D080051EBE37101F0004507D54FF0000EDCF10F
:101D1800000C7EEB00006EEB0101B1F5801F1BD3B8
:101D2800B1F5001F0CD349085FEA30004FEA3C0CBC
:101D380004F101044FEA445212F5800F80F09A80B2
:101D4800BCF1004F08BF5FEA500C50F1000041EBB6
:101D5800045141EA050130BD5FEA4C0C404141EBBA
:101D6800010111F4801FA4F10104E9D191F0000FE1
:101D780004BF01460020B1FA81F308BF2033A3F164
:101D88000B03B3F120020CDA0C3208DD02F1140C5B
:101D9800C2F10C0201FA0CF021FA02F10CE002F196
:101DA8001402D8BFC2F1200C01FA02F120FA0CFC8F
:101DB800DCBF41EA0C019040E41AA2BF01EB0451D8
:101DC800294330BD6FEA04041F3C1CDA0C340EDCD6
:101DD80004F11404C4F1200220FA04F001FA02F319
:101DE80040EA030021FA04F345EA030130BDC4F1D7
:101DF8000C04C4F1200220FA02F001FA04F340EACC
:101E08000300294630BD21FA04F0294630BD94F07C
:101E1800000F83F4801306BF81F480110134013D63
:101E28004EE77FEA645C18BF7FEA655C29D094EAD4
:101E3800050F08BF90EA020F05D054EA000C04BF52
:101E48001946104630BD91EA030F1EBF002100203D
:101E580030BD5FEA545C05D14000494128BF41F0DC
:101E6800004130BD14F580043CBF01F5801130BD40
:101E780001F0004545F0FE4141F470014FF00000CB
:101E880030BD7FEA645C1ABF194610467FEA655C7C
:101E98001CBF0B46024650EA013406BF52EA03351E
:101EA80091EA030F41F4002130BD00BF90F0000F0C
:101EB80004BF0021704730B54FF4806404F1320448
:101EC8004FF000054FF0000150E700BF90F0000F01
:101ED80004BF0021704730B54FF4806404F1320428
:101EE80010F0004548BF40424FF000013EE700BFF8
:101EF80042004FEAE2014FEA31014FEA02701FBF88
:101F080012F07F4393F07F4F81F06051704792F059
:101F1800000F14BF93F07F4F704730B54FF46074D3
:101F280001F0004521F0004120E700BF50EA01021E
:101F380008BF704730B54FF000050AE050EA0102CB
:101F480008BF704730B511F0004502D5404261EB3B
:101F580041014FF4806404F132045FEA915C3FF47C
:101F6800DCAE4FF003025FEADC0C18BF03325FEA15
:101F7800DC0C18BF033202EBDC02C2F1200300FACA
:101F880003FC20FA02F001FA03FE40EA0E0021FAEF
:101F980002F11444C1E600BF70B54FF0FF0C4CF4D9
:101FA800E06C1CEA11541DBF1CEA135594EA0C0F8F
:101FB80095EA0C0F00F0DEF82C4481EA030621EACA
:101FC8004C5123EA4C5350EA013518BF52EA033505
:101FD80041F4801143F4801338D0A0FB02CE4FF0B7
:101FE8000005E1FB02E506F00042E0FB03E54FF0E7
:101FF8000006E1FB03569CF0000F18BF4EF0010EDF
:10200800A4F1FF04B6F5007F64F5407404D25FEADA
:102018004E0E6D4146EB060642EAC62141EA55518D
:102028004FEAC52040EA5E504FEACE2EB4F1FD0CCF
:1020380088BFBCF5E06F1ED8BEF1004F08BF5FEA4D
:10204800500E50F1000041EB045170BD06F00046FF
:1020580046EA010140EA020081EA0301B4EB5C04AC
:10206800C2BFD4EB0C0541EA045170BD41F48011A4
:102078004FF0000E013C00F3AB8014F1360FDEBFC9
:10208800002001F0004170BDC4F10004203C35DAA5
:102098000C341BDC04F11404C4F1200500FA05F328
:1020A80020FA04F001FA05F240EA020001F00042C9
:1020B80021F0004110EBD37021FA04F642EB06013F
:1020C8005EEA430E08BF20EAD37070BDC4F10C0469
:1020D800C4F1200500FA04F320FA05F001FA04F22D
:1020E80040EA020001F0004110EBD37041F1000119
:1020F8005EEA430E08BF20EAD37070BDC4F1200524
:1021080000FA05F24EEA020E20FA04F301FA05F28B
:1021180043EA020321FA04F001F0004121FA04F233
:1021280020EA020000EBD3705EEA430E08BF20EA03
:10213800D37070BD94F0000F0FD101F0004640003D
:1021480041EB010111F4801F08BF013CF7D041EABF
:10215800060195F0000F18BF704703F000465200C3
:1021680043EB030313F4801F08BF013DF7D043EA94
:102178000603704794EA0C0F0CEA135518BF95EA4A
:102188000C0F0CD050EA410618BF52EA4306D1D1D1
:1021980081EA030101F000414FF0000070BD50EAF0
:1021A800410606BF1046194652EA430619D094EA7A
:1021B8000C0F02D150EA013613D195EA0C0F05D164
:1021C80052EA03361CBF104619460AD181EA0301B8
:1021D80001F0004141F0FE4141F470014FF0000070
:1021E80070BD41F0FE4141F4780170BD70B54FF00B
:1021F800FF0C4CF4E06C1CEA11541DBF1CEA13558B
:1022080094EA0C0F95EA0C0F00F0A7F8A4EB05046C
:1022180081EA030E52EA03354FEA013100F0888063
:102228004FEA03334FF0805545EA131343EA12632C
:102238004FEA022245EA111545EA10654FEA0026E1
:102248000EF000419D4208BF964244F1FD0404F59A
:10225800407402D25B084FEA3202B61A65EB0305F6
:102268005B084FEA32024FF480104FF4002CB6EBB3
:10227800020E75EB030E22BFB61A754640EA0C0033
:102288005B084FEA3202B6EB020E75EB030E22BF73
:10229800B61A754640EA5C005B084FEA3202B6EBB4
:1022A800020E75EB030E22BFB61A754640EA9C0073
:1022B8005B084FEA3202B6EB020E75EB030E22BF43
:1022C800B61A754640EADC0055EA060E18D04FEA01
:1022D800051545EA16754FEA06164FEAC30343EAA1
:1022E80052734FEAC2025FEA1C1CC0D111F4801F6E
:1022F8000BD141EA00014FF000004FF0004CB6E767
:1023080011F4801F04BF01430020B4F1FD0C88BF05
:10231800BCF5E06F3FF6AFAEB5EB030C04BFB6EB10
:10232800020C5FEA500C50F1000041EB045170BD03
:102338000EF0004E4EEA113114EB5C04C2BFD4EB30
:102348000C0541EA045170BD41F480114FF0000EB4
:10235800013C90E645EA060E8DE60CEA135594EA30
:102368000C0F08BF95EA0C0F3FF43BAF94EA0C0F33
:102378000AD150EA01347FF434AF95EA0C0F7FF4A8
:1023880025AF104619462CE795EA0C0F06D152EAFC
:1023980003353FF4FDAE1046194622E750EA4106E0
:1023A80018BF52EA43067FF4C5AE50EA41047FF4F1
:1023B8000DAF52EA43057FF4EBAE12E74FF0FF3C56
:1023C80006E000BF4FF0010C02E000BF4FF0010C27
:1023D8004DF804CD4FEA410C7FEA6C5C4FEA430CA0
:1023E80018BF7FEA6C5C1BD001B050EA410C0CBFEF
:1023F80052EA430C91EA030F02BF90EA020F002051
:10240800704710F1000F91EA030F58BF994208BFB7
:1024180090422CBFD8176FEAE37040F00100704774
:102428004FEA410C7FEA6C5C02D150EA013C07D1CB
:102438004FEA430C7FEA6C5CD6D152EA033CD3D016
:102448005DF8040B704700BF8446104662468C4610
:102458001946634600E000BF01B5FFF7B7FF002843
:1024680048BF10F1000F01BD4DF808EDFFF7F4FF6C
:102478000CBF012000205DF808FB00BF4DF808EDF7
:10248800FFF7EAFF34BF012000205DF808FB00BF1A
:102498004DF808EDFFF7E0FF94BF012000205DF83C
:1024A80008FB00BF4DF808EDFFF7CEFF94BF0120F1
:1024B80000205DF808FB00BF4DF808EDFFF7C4FFEA
:1024C80034BF012000205DF808FB00BF4FEA410C33
:1024D8007FEA6C5C02D150EA013C0AD14FEA430C16
:1024E8007FEA6C5C02D152EA033C02D14FF0000053
:1024F80070474FF0010070474FEA410212F5001291
:1025080015D211D56FF47873B3EB625212D94FEA32
:10251800C12343F0004343EA505311F0004F23FA1C
:1025280002F018BF404270474FF00000704750EA71
:10253800013005D111F0004008BF6FF0004070472E
:102548004FF00000704700BF4A0011D212F5001288
:1025580011D20DD56FF47873B3EB62520ED44FEAF3
:10256800C12343F0004343EA505323FA02F0704773
:102578004FF00000704750EA013002D14FF0FF30B1
:1025880070474FF0000070470A22002100F0FEB8A3
:1025980010B5054C13462CB10A4601460220AFF38C
:1025A800008010BD204610BD0000000010B5431E7D
:1025B8000A44914204D011F8014B03F8014FF8E79F
:1025C80010BD03460244934202D003F8011BFAE708
:1025D8007047000038B5124B05461C68A36BD3B989
:1025E8001820FEF795FC43F20E33A06303804AF6E9
:1025F800CD33438041F2342383804EF26D63C38030
:102608004DF6EC630381052343810B23838101226B
:102618000023C0E90423A36B00221D615A6138BD61
:102628006C04002010F8012B11F8013B012A28BF87
:102638009A42F7D0D01A7047034611F8012B03F8D5
:10264800012B002AF9D17047034613F8012B002A01
:10265800FBD1181A01387047034610B542B111F87A
:10266800014B013A03F8014B002CF7D11A4400E062
:1026780010BD934202D003F8014BFAE710BD0000E9
:102688002DE9F0470F4680463F48D0F800903D4678
:1026980015F8014B09EB0400407800F0080000F041
:1026A800FF0608B12F46F2E72D2C03D1BD1C7C781C
:1026B800012603E02B2C04BF7C78BD1C13B1102B22
:1026C8000AD15BE0302C57D1287800F0DF00582879
:1026D8004DD16C7810230235002E14BF4FF0004CFA
:1026E8006FF0004CBCFBF3FA0027384603FB1ACC0A
:1026F80009EB040E9EF801E01EF0040F01D0303CF7
:102708000BE01EF0030E1BD0BEF1010F0CBF4FF003
:10271800370E4FF0570ECEEB0404A34210DDB7F18D
:10272800FF3F0AD0504506D801D1644503DC03FBBE
:102738000040012701E04FF0FF3715F8014BD7E7BC
:102748007B1C0CD1002E4FF0220314BF4FF0004029
:102758006FF00040C8F800302AB9BDE8F08706B12C
:10276800404272B107B1691E1160BDE8F08730249C
:10277800002BB1D10823AFE70A23ADE7302CA3D053
:10278800AAE7BDE8F08700BF0804002013460A4600
:10279800014602480068FFF773BF00BF6C040020C1
:1027A8001D0008085D000808890008088D00080851
:1027B8000000000073746172746564004C6F63619B
:1027C80074696F6E3A20002C00494E56414C4944BA
:1027D800002020446174652F54696D653A20002FEC
:1027E8000030003A002E006E302E76616C3D363691
:1027F800004750524D43004750474741004E004E56
:102808004E4500454E45004553450053534500533A
:10281800005353570057535700574E57004E4E57C3
:10282800000000000000000000000000850F0808FC
:102838000000000000000000DF0F08082910080849
:1028480001100808E10F0808091008081110080805
:1028580019100808211008080000000000000000F6
:102868006F10080861100808631008086C6E00668D
:102878006E00636F64650064657461696C000D0ABD
:1028880000253031307520005D20002564002C20A3
:102898000028293A2000205B00636F6465203D20F2
:1028A8000025690064657461696C73203D200062CD
:1028B8006175640053657269616C005553425365D4
:1028C8007269616C31007479706500706172616D54
:1028D80000636D6400696400686E64007374726DEF
:1028E8000066696C74006C766C0061646448616EA3
:1028F800646C65720072656D6F766548616E646CB4
:10290800657200656E756D48616E646C6572730002
:102918004A534F4E53747265616D4C6F6748616ED0
:10292800646C657200617070006E6F6E6500747221
:1029380061636500696E666F007761726E0065722B
:10294800726F720070616E696300616C6C006E6119
:102958006E006F766600696E660000000000000079
:1029680000000000F9130808FB1308085A00252B7B
:102978003033643A253032750025592D256D2D25C3
:10298800645425483A254D3A2553257A00617363E6
:1029980074696D6500000000000000000000000080
:1029A800AF000808B3000808AF140808E1100808C9
:1029B80097140808A31408089D140808A9140808FF
:1029C8008D14080891140808000000000000000099
:1029D8006D150808B11508088B150808E1100808D6
:1029E800851508086F15080877150808AB15080835
:1029F8007F150808691508080020202020202020BD
:102A08002020282828282820202020202020202096
:102A180020202020202020202088101010101010A6
:102A280010101010101010101004040404040404F2
:102A3800040404101010101010104141414141418C
:102A4800010101010101010101010101010101016E
:102A5800010101011010101010104242424242427E
:102A6800020202020202020202020202020202023E
:102A780002020202101010102000000000000000E6
:102A8800000000000000000000000000000000003E
:102A9800000000000000000000000000000000002E
:102AA800000000000000000000000000000000001E
:102AB800000000000000000000000000000000000E
:102AC80000000000000000000000000000000000FE
:102AD80000000000000000000000000000000000EE
:102AE80000000000000000000000000000000000DE
:102AF80000000000000000000000000000000000CE
:102B080000000000000000000000000000000000BD
:102B180000000000000000000000000000000000AD
:102B2800000000000000000000000000000000009D
:102B3800000000000000000000000000000000008D
:102B4800000000000000000000000000000000007D
:102B580000000000000000000000000089050808CF
:102B68003D0C0808910F0808D1100808DD13080863
:102B780039140808791408080919080839190808BF
:102B8800A1190808651A0808E91A08086D1B080839
:082B9800000000000000000035
:042BA0000000000031
:102BA4000700000095290808002A08080000000012
:102BB400042B0808242B0808442B080800000000F4
:102BC400000000000000000000000000FD270808CD
:102BD40000000000000000000000000000000000F1
:102BE40000000000000000000000000000000000E1
:102BF40000000000000000000000000000000000D1
:102C04000000000000000000000000000C04002090
:102C1400FFFFFFFF00000102030405060708090A7D
:102C24000B0C0D0E0F101112131415161718191A78
:082C34001B1C1D1E1F202800BF
:042C3C007856341280
:0400000508080018CF
:00000001FF
